{
  "_format": "hh-sol-artifact-1",
  "contractName": "SupplyChain",
  "sourceName": "contracts/SupplyChain.sol",
  "abi": [
    {
      "inputs": [],
      "stateMutability": "nonpayable",
      "type": "constructor"
    },
    {
      "anonymous": false,
      "inputs": [
        {
          "indexed": true,
          "internalType": "uint256",
          "name": "batchId",
          "type": "uint256"
        },
        {
          "indexed": true,
          "internalType": "uint256",
          "name": "productId",
          "type": "uint256"
        },
        {
          "indexed": false,
          "internalType": "string",
          "name": "batchNumber",
          "type": "string"
        },
        {
          "indexed": false,
          "internalType": "string",
          "name": "supplierBatchRef",
          "type": "string"
        },
        {
          "indexed": false,
          "internalType": "uint256",
          "name": "mfgDate",
          "type": "uint256"
        },
        {
          "indexed": false,
          "internalType": "uint256",
          "name": "expiryDate",
          "type": "uint256"
        },
        {
          "indexed": false,
          "internalType": "uint256",
          "name": "createdAt",
          "type": "uint256"
        }
      ],
      "name": "BatchCreated",
      "type": "event"
    },
    {
      "anonymous": false,
      "inputs": [
        {
          "indexed": true,
          "internalType": "uint256",
          "name": "txId",
          "type": "uint256"
        },
        {
          "indexed": true,
          "internalType": "uint256",
          "name": "productId",
          "type": "uint256"
        },
        {
          "indexed": true,
          "internalType": "uint256",
          "name": "batchId",
          "type": "uint256"
        },
        {
          "indexed": false,
          "internalType": "enum SupplyChain.InventoryAction",
          "name": "action",
          "type": "uint8"
        },
        {
          "indexed": false,
          "internalType": "uint256",
          "name": "quantity",
          "type": "uint256"
        },
        {
          "indexed": false,
          "internalType": "int256",
          "name": "signedDelta",
          "type": "int256"
        },
        {
          "indexed": false,
          "internalType": "address",
          "name": "fromAddr",
          "type": "address"
        },
        {
          "indexed": false,
          "internalType": "address",
          "name": "toAddr",
          "type": "address"
        },
        {
          "indexed": false,
          "internalType": "string",
          "name": "refNote",
          "type": "string"
        },
        {
          "indexed": false,
          "internalType": "uint256",
          "name": "timestamp",
          "type": "uint256"
        }
      ],
      "name": "InventoryChanged",
      "type": "event"
    },
    {
      "anonymous": false,
      "inputs": [
        {
          "indexed": true,
          "internalType": "uint256",
          "name": "productId",
          "type": "uint256"
        },
        {
          "indexed": false,
          "internalType": "string",
          "name": "name",
          "type": "string"
        },
        {
          "indexed": false,
          "internalType": "uint256",
          "name": "timestamp",
          "type": "uint256"
        },
        {
          "indexed": true,
          "internalType": "address",
          "name": "actor",
          "type": "address"
        }
      ],
      "name": "ProductOrdered",
      "type": "event"
    },
    {
      "anonymous": false,
      "inputs": [
        {
          "indexed": true,
          "internalType": "uint256",
          "name": "productId",
          "type": "uint256"
        },
        {
          "indexed": false,
          "internalType": "uint8",
          "name": "fromStage",
          "type": "uint8"
        },
        {
          "indexed": false,
          "internalType": "uint8",
          "name": "toStage",
          "type": "uint8"
        },
        {
          "indexed": false,
          "internalType": "uint256",
          "name": "timestamp",
          "type": "uint256"
        },
        {
          "indexed": true,
          "internalType": "address",
          "name": "actor",
          "type": "address"
        }
      ],
      "name": "ProductStageUpdated",
      "type": "event"
    },
    {
      "inputs": [
        {
          "internalType": "uint256",
          "name": "",
          "type": "uint256"
        }
      ],
      "name": "BatchStock",
      "outputs": [
        {
          "internalType": "uint256",
          "name": "id",
          "type": "uint256"
        },
        {
          "internalType": "uint256",
          "name": "productId",
          "type": "uint256"
        },
        {
          "internalType": "string",
          "name": "batchNumber",
          "type": "string"
        },
        {
          "internalType": "string",
          "name": "supplierBatchRef",
          "type": "string"
        },
        {
          "internalType": "uint256",
          "name": "mfgDate",
          "type": "uint256"
        },
        {
          "internalType": "uint256",
          "name": "expiryDate",
          "type": "uint256"
        },
        {
          "internalType": "uint256",
          "name": "totalReceived",
          "type": "uint256"
        },
        {
          "internalType": "uint256",
          "name": "totalIssued",
          "type": "uint256"
        },
        {
          "internalType": "uint256",
          "name": "createdAt",
          "type": "uint256"
        },
        {
          "internalType": "bool",
          "name": "exists",
          "type": "bool"
        }
      ],
      "stateMutability": "view",
      "type": "function"
    },
    {
      "inputs": [
        {
          "internalType": "uint256",
          "name": "",
          "type": "uint256"
        }
      ],
      "name": "InventoryTx",
      "outputs": [
        {
          "internalType": "uint256",
          "name": "id",
          "type": "uint256"
        },
        {
          "internalType": "uint256",
          "name": "productId",
          "type": "uint256"
        },
        {
          "internalType": "uint256",
          "name": "batchId",
          "type": "uint256"
        },
        {
          "internalType": "enum SupplyChain.InventoryAction",
          "name": "action",
          "type": "uint8"
        },
        {
          "internalType": "uint256",
          "name": "quantity",
          "type": "uint256"
        },
        {
          "internalType": "address",
          "name": "fromAddr",
          "type": "address"
        },
        {
          "internalType": "address",
          "name": "toAddr",
          "type": "address"
        },
        {
          "internalType": "int256",
          "name": "signedDelta",
          "type": "int256"
        },
        {
          "internalType": "string",
          "name": "refNote",
          "type": "string"
        },
        {
          "internalType": "uint256",
          "name": "timestamp",
          "type": "uint256"
        }
      ],
      "stateMutability": "view",
      "type": "function"
    },
    {
      "inputs": [
        {
          "internalType": "uint256",
          "name": "",
          "type": "uint256"
        }
      ],
      "name": "MAN",
      "outputs": [
        {
          "internalType": "address",
          "name": "addr",
          "type": "address"
        },
        {
          "internalType": "uint256",
          "name": "id",
          "type": "uint256"
        },
        {
          "internalType": "string",
          "name": "name",
          "type": "string"
        },
        {
          "internalType": "string",
          "name": "place",
          "type": "string"
        }
      ],
      "stateMutability": "view",
      "type": "function"
    },
    {
      "inputs": [
        {
          "internalType": "uint256",
          "name": "_productID",
          "type": "uint256"
        }
      ],
      "name": "Manufacturing",
      "outputs": [],
      "stateMutability": "nonpayable",
      "type": "function"
    },
    {
      "inputs": [],
      "name": "Owner",
      "outputs": [
        {
          "internalType": "address",
          "name": "",
          "type": "address"
        }
      ],
      "stateMutability": "view",
      "type": "function"
    },
    {
      "inputs": [
        {
          "internalType": "uint256",
          "name": "",
          "type": "uint256"
        }
      ],
      "name": "ProductStock",
      "outputs": [
        {
          "internalType": "uint256",
          "name": "id",
          "type": "uint256"
        },
        {
          "internalType": "string",
          "name": "name",
          "type": "string"
        },
        {
          "internalType": "string",
          "name": "description",
          "type": "string"
        },
        {
          "internalType": "uint256",
          "name": "MANid",
          "type": "uint256"
        },
        {
          "internalType": "uint256",
          "name": "WARid",
          "type": "uint256"
        },
        {
          "internalType": "uint256",
          "name": "RETid",
          "type": "uint256"
        },
        {
          "internalType": "enum SupplyChain.STAGE",
          "name": "stage",
          "type": "uint8"
        }
      ],
      "stateMutability": "view",
      "type": "function"
    },
    {
      "inputs": [
        {
          "internalType": "uint256",
          "name": "",
          "type": "uint256"
        }
      ],
      "name": "RET",
      "outputs": [
        {
          "internalType": "address",
          "name": "addr",
          "type": "address"
        },
        {
          "internalType": "uint256",
          "name": "id",
          "type": "uint256"
        },
        {
          "internalType": "string",
          "name": "name",
          "type": "string"
        },
        {
          "internalType": "string",
          "name": "place",
          "type": "string"
        }
      ],
      "stateMutability": "view",
      "type": "function"
    },
    {
      "inputs": [
        {
          "internalType": "uint256",
          "name": "_productID",
          "type": "uint256"
        }
      ],
      "name": "Retail",
      "outputs": [],
      "stateMutability": "nonpayable",
      "type": "function"
    },
    {
      "inputs": [
        {
          "internalType": "uint256",
          "name": "",
          "type": "uint256"
        }
      ],
      "name": "WAR",
      "outputs": [
        {
          "internalType": "address",
          "name": "addr",
          "type": "address"
        },
        {
          "internalType": "uint256",
          "name": "id",
          "type": "uint256"
        },
        {
          "internalType": "string",
          "name": "name",
          "type": "string"
        },
        {
          "internalType": "string",
          "name": "place",
          "type": "string"
        }
      ],
      "stateMutability": "view",
      "type": "function"
    },
    {
      "inputs": [
        {
          "internalType": "uint256",
          "name": "_productID",
          "type": "uint256"
        }
      ],
      "name": "Warehouse",
      "outputs": [],
      "stateMutability": "nonpayable",
      "type": "function"
    },
    {
      "inputs": [
        {
          "internalType": "address",
          "name": "_address",
          "type": "address"
        },
        {
          "internalType": "string",
          "name": "_name",
          "type": "string"
        },
        {
          "internalType": "string",
          "name": "_place",
          "type": "string"
        }
      ],
      "name": "addManufacturer",
      "outputs": [],
      "stateMutability": "nonpayable",
      "type": "function"
    },
    {
      "inputs": [
        {
          "internalType": "string",
          "name": "_name",
          "type": "string"
        },
        {
          "internalType": "string",
          "name": "_description",
          "type": "string"
        }
      ],
      "name": "addProduct",
      "outputs": [],
      "stateMutability": "nonpayable",
      "type": "function"
    },
    {
      "inputs": [
        {
          "internalType": "address",
          "name": "_address",
          "type": "address"
        },
        {
          "internalType": "string",
          "name": "_name",
          "type": "string"
        },
        {
          "internalType": "string",
          "name": "_place",
          "type": "string"
        }
      ],
      "name": "addRetailer",
      "outputs": [],
      "stateMutability": "nonpayable",
      "type": "function"
    },
    {
      "inputs": [
        {
          "internalType": "address",
          "name": "_address",
          "type": "address"
        },
        {
          "internalType": "string",
          "name": "_name",
          "type": "string"
        },
        {
          "internalType": "string",
          "name": "_place",
          "type": "string"
        }
      ],
      "name": "addWarehouse",
      "outputs": [],
      "stateMutability": "nonpayable",
      "type": "function"
    },
    {
      "inputs": [
        {
          "internalType": "uint256",
          "name": "_productID",
          "type": "uint256"
        },
        {
          "internalType": "uint256",
          "name": "_batchID",
          "type": "uint256"
        },
        {
          "internalType": "int256",
          "name": "_quantityDelta",
          "type": "int256"
        },
        {
          "internalType": "address",
          "name": "_holder",
          "type": "address"
        },
        {
          "internalType": "string",
          "name": "_reference",
          "type": "string"
        }
      ],
      "name": "adjustInventory",
      "outputs": [],
      "stateMutability": "nonpayable",
      "type": "function"
    },
    {
      "inputs": [
        {
          "internalType": "uint256",
          "name": "",
          "type": "uint256"
        },
        {
          "internalType": "address",
          "name": "",
          "type": "address"
        }
      ],
      "name": "batchBalanceByHolder",
      "outputs": [
        {
          "internalType": "uint256",
          "name": "",
          "type": "uint256"
        }
      ],
      "stateMutability": "view",
      "type": "function"
    },
    {
      "inputs": [],
      "name": "batchCtr",
      "outputs": [
        {
          "internalType": "uint256",
          "name": "",
          "type": "uint256"
        }
      ],
      "stateMutability": "view",
      "type": "function"
    },
    {
      "inputs": [
        {
          "internalType": "uint256",
          "name": "_productID",
          "type": "uint256"
        },
        {
          "internalType": "string",
          "name": "_batchNumber",
          "type": "string"
        },
        {
          "internalType": "string",
          "name": "_supplierBatchRef",
          "type": "string"
        },
        {
          "internalType": "uint256",
          "name": "_mfgDate",
          "type": "uint256"
        },
        {
          "internalType": "uint256",
          "name": "_expiryDate",
          "type": "uint256"
        }
      ],
      "name": "createBatch",
      "outputs": [
        {
          "internalType": "uint256",
          "name": "",
          "type": "uint256"
        }
      ],
      "stateMutability": "nonpayable",
      "type": "function"
    },
    {
      "inputs": [
        {
          "internalType": "uint256",
          "name": "_batchID",
          "type": "uint256"
        }
      ],
      "name": "getBatchRemainingQty",
      "outputs": [
        {
          "internalType": "uint256",
          "name": "",
          "type": "uint256"
        }
      ],
      "stateMutability": "view",
      "type": "function"
    },
    {
      "inputs": [
        {
          "internalType": "uint256",
          "name": "_productID",
          "type": "uint256"
        }
      ],
      "name": "getProductBatchIds",
      "outputs": [
        {
          "internalType": "uint256[]",
          "name": "",
          "type": "uint256[]"
        }
      ],
      "stateMutability": "view",
      "type": "function"
    },
    {
      "inputs": [
        {
          "internalType": "uint256",
          "name": "_productID",
          "type": "uint256"
        }
      ],
      "name": "getProductTimestamps",
      "outputs": [
        {
          "internalType": "uint256",
          "name": "orderedAt",
          "type": "uint256"
        },
        {
          "internalType": "uint256",
          "name": "rawSupplyAt",
          "type": "uint256"
        },
        {
          "internalType": "uint256",
          "name": "manufactureAt",
          "type": "uint256"
        },
        {
          "internalType": "uint256",
          "name": "distributionAt",
          "type": "uint256"
        },
        {
          "internalType": "uint256",
          "name": "retailAt",
          "type": "uint256"
        },
        {
          "internalType": "uint256",
          "name": "soldAt",
          "type": "uint256"
        },
        {
          "internalType": "uint256",
          "name": "updatedAt",
          "type": "uint256"
        }
      ],
      "stateMutability": "view",
      "type": "function"
    },
    {
      "inputs": [],
      "name": "inventoryTxCtr",
      "outputs": [
        {
          "internalType": "uint256",
          "name": "",
          "type": "uint256"
        }
      ],
      "stateMutability": "view",
      "type": "function"
    },
    {
      "inputs": [
        {
          "internalType": "uint256",
          "name": "_batchID",
          "type": "uint256"
        }
      ],
      "name": "isBatchExpired",
      "outputs": [
        {
          "internalType": "bool",
          "name": "",
          "type": "bool"
        }
      ],
      "stateMutability": "view",
      "type": "function"
    },
    {
      "inputs": [
        {
          "internalType": "uint256",
          "name": "_productID",
          "type": "uint256"
        },
        {
          "internalType": "uint256",
          "name": "_batchID",
          "type": "uint256"
        },
        {
          "internalType": "uint256",
          "name": "_quantity",
          "type": "uint256"
        },
        {
          "internalType": "address",
          "name": "_from",
          "type": "address"
        },
        {
          "internalType": "address",
          "name": "_to",
          "type": "address"
        },
        {
          "internalType": "string",
          "name": "_reference",
          "type": "string"
        }
      ],
      "name": "issueInventory",
      "outputs": [],
      "stateMutability": "nonpayable",
      "type": "function"
    },
    {
      "inputs": [],
      "name": "manCtr",
      "outputs": [
        {
          "internalType": "uint256",
          "name": "",
          "type": "uint256"
        }
      ],
      "stateMutability": "view",
      "type": "function"
    },
    {
      "inputs": [
        {
          "internalType": "uint256",
          "name": "",
          "type": "uint256"
        }
      ],
      "name": "productCreatedAt",
      "outputs": [
        {
          "internalType": "uint256",
          "name": "",
          "type": "uint256"
        }
      ],
      "stateMutability": "view",
      "type": "function"
    },
    {
      "inputs": [],
      "name": "productCtr",
      "outputs": [
        {
          "internalType": "uint256",
          "name": "",
          "type": "uint256"
        }
      ],
      "stateMutability": "view",
      "type": "function"
    },
    {
      "inputs": [
        {
          "internalType": "uint256",
          "name": "",
          "type": "uint256"
        }
      ],
      "name": "productInventory",
      "outputs": [
        {
          "internalType": "uint256",
          "name": "",
          "type": "uint256"
        }
      ],
      "stateMutability": "view",
      "type": "function"
    },
    {
      "inputs": [
        {
          "internalType": "uint256",
          "name": "",
          "type": "uint256"
        }
      ],
      "name": "productLastUpdatedAt",
      "outputs": [
        {
          "internalType": "uint256",
          "name": "",
          "type": "uint256"
        }
      ],
      "stateMutability": "view",
      "type": "function"
    },
    {
      "inputs": [
        {
          "internalType": "uint256",
          "name": "",
          "type": "uint256"
        },
        {
          "internalType": "uint8",
          "name": "",
          "type": "uint8"
        }
      ],
      "name": "productStageAt",
      "outputs": [
        {
          "internalType": "uint256",
          "name": "",
          "type": "uint256"
        }
      ],
      "stateMutability": "view",
      "type": "function"
    },
    {
      "inputs": [
        {
          "internalType": "uint256",
          "name": "_productID",
          "type": "uint256"
        },
        {
          "internalType": "uint256",
          "name": "_batchID",
          "type": "uint256"
        },
        {
          "internalType": "uint256",
          "name": "_quantity",
          "type": "uint256"
        },
        {
          "internalType": "address",
          "name": "_to",
          "type": "address"
        },
        {
          "internalType": "string",
          "name": "_reference",
          "type": "string"
        }
      ],
      "name": "receiveInventory",
      "outputs": [],
      "stateMutability": "nonpayable",
      "type": "function"
    },
    {
      "inputs": [],
      "name": "retCtr",
      "outputs": [
        {
          "internalType": "uint256",
          "name": "",
          "type": "uint256"
        }
      ],
      "stateMutability": "view",
      "type": "function"
    },
    {
      "inputs": [
        {
          "internalType": "uint256",
          "name": "_productID",
          "type": "uint256"
        }
      ],
      "name": "showStage",
      "outputs": [
        {
          "internalType": "string",
          "name": "",
          "type": "string"
        }
      ],
      "stateMutability": "view",
      "type": "function"
    },
    {
      "inputs": [
        {
          "internalType": "uint256",
          "name": "_productID",
          "type": "uint256"
        }
      ],
      "name": "sold",
      "outputs": [],
      "stateMutability": "nonpayable",
      "type": "function"
    },
    {
      "inputs": [
        {
          "internalType": "uint256",
          "name": "_productID",
          "type": "uint256"
        },
        {
          "internalType": "uint256",
          "name": "_batchID",
          "type": "uint256"
        },
        {
          "internalType": "uint256",
          "name": "_quantity",
          "type": "uint256"
        },
        {
          "internalType": "address",
          "name": "_from",
          "type": "address"
        },
        {
          "internalType": "address",
          "name": "_to",
          "type": "address"
        },
        {
          "internalType": "string",
          "name": "_reference",
          "type": "string"
        }
      ],
      "name": "transferInventory",
      "outputs": [],
      "stateMutability": "nonpayable",
      "type": "function"
    },
    {
      "inputs": [],
      "name": "warCtr",
      "outputs": [
        {
          "internalType": "uint256",
          "name": "",
          "type": "uint256"
        }
      ],
      "stateMutability": "view",
      "type": "function"
    }
  ],
  "bytecode": "0x608060405260006001556000600255600060035560006004556000600555600060065534801561002e57600080fd5b50600080546001600160a01b0319163317905561338d806100506000396000f3fe608060405234801561001057600080fd5b506004361061021c5760003560e01c8063857ddb0411610125578063b4a99a4e116100ad578063de1055261161007c578063de10552614610558578063e101a2e01461056b578063e3c7036b1461058b578063e92b13ae1461059e578063f06fdd4c146105a757600080fd5b8063b4a99a4e146104f4578063ca2efb551461051f578063cc40306914610532578063d776122d1461054557600080fd5b80639b740b2f116100f45780639b740b2f146104925780639c03facb146104b2578063a48d335a146104c5578063aaea34aa146104d8578063aaf175b8146104e157600080fd5b8063857ddb041461043a5780638afc54d91461044d57806394d867141461045657806397b75ad61461046957600080fd5b806353c5feed116101a85780636a42ba92116101775780636a42ba92146103bb5780636a992c9f146103de57806379d4e21a146103f15780637e43d94d146104115780638217ad6f1461041a57600080fd5b806353c5feed146103345780635573d8b21461034757806359bf286f1461036d57806363b82eb71461039057600080fd5b80632ef83d0c116101ef5780632ef83d0c146102925780633a05c8d8146102a55780633d753a1c146102ed578063438a0a4814610300578063438e9c4d1461032b57600080fd5b8063066bd25c1461022157806311b1851c1461025357806323c55dfa146102685780632992825f1461027f575b600080fd5b61023461022f366004612a29565b6105c7565b60405161024a9a99989796959493929190612a88565b60405180910390f35b610266610261366004612a29565b61072a565b005b61027160055481565b60405190815260200161024a565b61027161028d366004612b98565b6107d6565b6102666102a0366004612c33565b610a61565b6102b86102b3366004612a29565b610c49565b604080519788526020880196909652948601939093526060850191909152608084015260a083015260c082015260e00161024a565b6102666102fb366004612a29565b610cdf565b61027161030e366004612c9e565b601260209081526000928352604080842090915290825290205481565b61027160025481565b610266610342366004612cd4565b610d7c565b61035a610355366004612a29565b611082565b60405161024a9796959493929190612d64565b61038061037b366004612a29565b6111d1565b60405161024a9493929190612dc6565b61027161039e366004612e0a565b600e60209081526000928352604080842090915290825290205481565b6103ce6103c9366004612a29565b611314565b604051901515815260200161024a565b6102666103ec366004612e36565b611391565b6102716103ff366004612a29565b600d6020526000908152604090205481565b61027160045481565b610271610428366004612a29565b60116020526000908152604090205481565b610266610448366004612e36565b6114b2565b61027160035481565b610266610464366004612cd4565b6115b5565b61047c610477366004612a29565b61187f565b60405161024a9a99989796959493929190612ebe565b6104a56104a0366004612a29565b61196b565b60405161024a9190612f31565b6102666104c0366004612a29565b6119fd565b6102666104d3366004612a29565b611ad7565b61027160015481565b6102666104ef366004612c33565b611b78565b600054610507906001600160a01b031681565b6040516001600160a01b03909116815260200161024a565b61026661052d366004612f75565b611ef0565b610380610540366004612a29565b6120ef565b610266610553366004612e36565b612121565b610380610566366004612a29565b612224565b61057e610579366004612a29565b612256565b60405161024a9190612fd9565b610271610599366004612a29565b612487565b61027160065481565b6102716105b5366004612a29565b60106020526000908152604090205481565b600b60205260009081526040902080546001820154600283018054929391926105ef90612fec565b80601f016020809104026020016040519081016040528092919081815260200182805461061b90612fec565b80156106685780601f1061063d57610100808354040283529160200191610668565b820191906000526020600020905b81548152906001019060200180831161064b57829003601f168201915b50505050509080600301805461067d90612fec565b80601f01602080910402602001604051908101604052809291908181526020018280546106a990612fec565b80156106f65780601f106106cb576101008083540402835291602001916106f6565b820191906000526020600020905b8154815290600101906020018083116106d957829003601f168201915b5050506004840154600585015460068601546007870154600888015460099098015496979396929550909350919060ff168a565b8060008111801561073d57506001548111155b6107625760405162461bcd60e51b815260040161075990613020565b60405180910390fd5b600061076d336124ff565b9050600081116107b05760405162461bcd60e51b815260206004820152600e60248201526d4f6e6c792077617265686f75736560901b6044820152606401610759565b60008381526007602052604090206004018190556107d18360016002612561565b505050565b600080546001600160a01b03163314806107f457506107f4336126c4565b6108105760405162461bcd60e51b81526004016107599061304c565b8560008111801561082357506001548111155b61083f5760405162461bcd60e51b815260040161075990613020565b60008651116108885760405162461bcd60e51b815260206004820152601560248201527410985d18da081b9d5b58995c881c995c5d5a5c9959605a1b6044820152606401610759565b8215806108955750838310155b6108e15760405162461bcd60e51b815260206004820152601b60248201527f457870697279206265666f7265206d616e75666163747572696e6700000000006044820152606401610759565b600580549060006108f18361308a565b91905055506040518061014001604052806005548152602001888152602001878152602001868152602001858152602001848152602001600081526020016000815260200142815260200160011515815250600b600060055481526020019081526020016000206000820151816000015560208201518160010155604082015181600201908161098191906130e9565b506060820151600382019061099690826130e9565b506080820151600482015560a082015160058083019190915560c0830151600683015560e083015160078301556101008301516008830155610120909201516009909101805460ff19169115159190911790556000888152600f60209081526040808320845481546001810183559185529290932090920155905490518891907f43a717c856186f9851bb44ec695f54cec2498390001f322d23c67eb394f6f2b290610a4b908a908a908a908a9042906131a9565b60405180910390a3505060055495945050505050565b6000546001600160a01b0316331480610a7e5750610a7e336126c4565b610a9a5760405162461bcd60e51b81526004016107599061304c565b84600081118015610aad57506001548111155b610ac95760405162461bcd60e51b815260040161075990613020565b84600081118015610adc57506005548111155b8015610af957506000818152600b602052604090206009015460ff165b610b155760405162461bcd60e51b8152600401610759906131ec565b60008511610b355760405162461bcd60e51b815260040161075990613216565b6001600160a01b038416610b7e5760405162461bcd60e51b815260206004820152601060248201526f24b73b30b634b2103932b1b2b4bb32b960811b6044820152606401610759565b6000868152600b60205260409020600101548714610bae5760405162461bcd60e51b815260040161075990613244565b6000868152600b602052604081206006018054879290610bcf908490613274565b90915550506000878152600d602052604081208054879290610bf2908490613274565b90915550506000868152600e602090815260408083206001600160a01b038816845290915281208054879290610c29908490613274565b90915550610c40905087876000888189828a6126f3565b50505050505050565b600080600080600080600087600081118015610c6757506001548111155b610c835760405162461bcd60e51b815260040161075990613020565b505050600086815260126020908152604080832083805282528083205460018452818420546002855282852054600386528386205460048752848720549c8752601190955292852054919b949a90995091975091955093509150565b80600081118015610cf257506001548111155b610d0e5760405162461bcd60e51b815260040161075990613020565b6000610d1933612899565b905060008111610d5b5760405162461bcd60e51b815260206004820152600d60248201526c27b7363c903932ba30b4b632b960991b6044820152606401610759565b60008381526007602052604090206005018190556107d18360026003612561565b6000546001600160a01b0316331480610d995750610d99336126c4565b610db55760405162461bcd60e51b81526004016107599061304c565b85600081118015610dc857506001548111155b610de45760405162461bcd60e51b815260040161075990613020565b85600081118015610df757506005548111155b8015610e1457506000818152600b602052604090206009015460ff165b610e305760405162461bcd60e51b8152600401610759906131ec565b60008611610e505760405162461bcd60e51b815260040161075990613216565b6001600160a01b038516610e975760405162461bcd60e51b815260206004820152600e60248201526d496e76616c696420736f7572636560901b6044820152606401610759565b6001600160a01b038416610ee35760405162461bcd60e51b815260206004820152601360248201527224b73b30b634b2103232b9ba34b730ba34b7b760691b6044820152606401610759565b6000878152600b60205260409020600101548814610f135760405162461bcd60e51b815260040161075990613244565b6000878152600e602090815260408083206001600160a01b0389168452909152902054861115610f805760405162461bcd60e51b8152602060048201526018602482015277496e73756666696369656e742062617463682073746f636b60401b6044820152606401610759565b6000888152600d6020526040902054861115610fde5760405162461bcd60e51b815260206004820152601a60248201527f496e73756666696369656e742070726f647563742073746f636b0000000000006044820152606401610759565b6000878152600e602090815260408083206001600160a01b038916845290915281208054889290611010908490613287565b90915550506000878152600b602052604081206007018054889290611036908490613274565b90915550506000888152600d602052604081208054889290611059908490613287565b909155506110789050888860018989896110728361329a565b8a6126f3565b5050505050505050565b600760205260009081526040902080546001820180549192916110a490612fec565b80601f01602080910402602001604051908101604052809291908181526020018280546110d090612fec565b801561111d5780601f106110f25761010080835404028352916020019161111d565b820191906000526020600020905b81548152906001019060200180831161110057829003601f168201915b50505050509080600201805461113290612fec565b80601f016020809104026020016040519081016040528092919081815260200182805461115e90612fec565b80156111ab5780601f10611180576101008083540402835291602001916111ab565b820191906000526020600020905b81548152906001019060200180831161118e57829003601f168201915b505050506003830154600484015460058501546006909501549394919390925060ff1687565b600a602052600090815260409020805460018201546002830180546001600160a01b0390931693919261120390612fec565b80601f016020809104026020016040519081016040528092919081815260200182805461122f90612fec565b801561127c5780601f106112515761010080835404028352916020019161127c565b820191906000526020600020905b81548152906001019060200180831161125f57829003601f168201915b50505050509080600301805461129190612fec565b80601f01602080910402602001604051908101604052809291908181526020018280546112bd90612fec565b801561130a5780601f106112df5761010080835404028352916020019161130a565b820191906000526020600020905b8154815290600101906020018083116112ed57829003601f168201915b5050505050905084565b60008160008111801561132957506005548111155b801561134657506000818152600b602052604090206009015460ff165b6113625760405162461bcd60e51b8152600401610759906131ec565b6000838152600b60205260408120600501549081900361138657600092505061138b565b421191505b50919050565b6000546001600160a01b031633146113bb5760405162461bcd60e51b8152600401610759906132b6565b6001600160a01b0383166114115760405162461bcd60e51b815260206004820152601c60248201527f496e76616c6964206d616e7566616374757265722061646472657373000000006044820152606401610759565b600280549060006114218361308a565b9091555050604080516080810182526001600160a01b038581168252600280546020808501828152858701898152606087018990526000938452600890925295909120845181546001600160a01b0319169416939093178355935160018301559251919290919082019061149590826130e9565b50606082015160038201906114aa90826130e9565b505050505050565b6000546001600160a01b031633146114dc5760405162461bcd60e51b8152600401610759906132b6565b6001600160a01b0383166115325760405162461bcd60e51b815260206004820152601860248201527f496e76616c69642072657461696c6572206164647265737300000000000000006044820152606401610759565b600480549060006115428361308a565b9091555050604080516080810182526001600160a01b0385811682526004546020808401828152848601888152606086018890526000938452600a90925294909120835181546001600160a01b0319169316929092178255925160018201559151909190600282019061149590826130e9565b6000546001600160a01b03163314806115d257506115d2336126c4565b6115ee5760405162461bcd60e51b81526004016107599061304c565b8560008111801561160157506001548111155b61161d5760405162461bcd60e51b815260040161075990613020565b8560008111801561163057506005548111155b801561164d57506000818152600b602052604090206009015460ff165b6116695760405162461bcd60e51b8152600401610759906131ec565b600086116116895760405162461bcd60e51b815260040161075990613216565b6001600160a01b038516158015906116a957506001600160a01b03841615155b6116f55760405162461bcd60e51b815260206004820152601860248201527f496e76616c6964207472616e73666572206164647265737300000000000000006044820152606401610759565b836001600160a01b0316856001600160a01b0316036117615760405162461bcd60e51b815260206004820152602260248201527f536f7572636520616e642064657374696e6174696f6e206d757374206469666660448201526132b960f11b6064820152608401610759565b6000878152600b602052604090206001015488146117915760405162461bcd60e51b815260040161075990613244565b6000878152600e602090815260408083206001600160a01b03891684529091529020548611156117fe5760405162461bcd60e51b8152602060048201526018602482015277496e73756666696369656e742062617463682073746f636b60401b6044820152606401610759565b6000878152600e602090815260408083206001600160a01b038916845290915281208054889290611830908490613287565b90915550506000878152600e602090815260408083206001600160a01b038816845290915281208054889290611867908490613274565b9091555061107890508888600289898960008a6126f3565b600c6020526000908152604090208054600182015460028301546003840154600485015460058601546006870154600788015460088901805498999798969760ff9096169694956001600160a01b0394851695939094169391926118e290612fec565b80601f016020809104026020016040519081016040528092919081815260200182805461190e90612fec565b801561195b5780601f106119305761010080835404028352916020019161195b565b820191906000526020600020905b81548152906001019060200180831161193e57829003601f168201915b505050505090806009015490508a565b60608160008111801561198057506001548111155b61199c5760405162461bcd60e51b815260040161075990613020565b6000838152600f6020908152604091829020805483518184028101840190945280845290918301828280156119f057602002820191906000526020600020905b8154815260200190600101908083116119dc575b5050505050915050919050565b80600081118015611a1057506001548111155b611a2c5760405162461bcd60e51b815260040161075990613020565b6000611a3733612899565b905060008111611a795760405162461bcd60e51b815260206004820152600d60248201526c27b7363c903932ba30b4b632b960991b6044820152606401610759565b6000838152600760205260409020600501548114611aca5760405162461bcd60e51b815260206004820152600e60248201526d2bb937b733903932ba30b4b632b960911b6044820152606401610759565b6107d18360036004612561565b80600081118015611aea57506001548111155b611b065760405162461bcd60e51b815260040161075990613020565b6000611b11336128f2565b905060008111611b575760405162461bcd60e51b815260206004820152601160248201527027b7363c9036b0b73ab330b1ba3ab932b960791b6044820152606401610759565b60008381526007602052604081206003018290556107d19084906001612561565b6000546001600160a01b03163314611ba25760405162461bcd60e51b8152600401610759906132b6565b84600081118015611bb557506001548111155b611bd15760405162461bcd60e51b815260040161075990613020565b84600081118015611be457506005548111155b8015611c0157506000818152600b602052604090206009015460ff165b611c1d5760405162461bcd60e51b8152600401610759906131ec565b84600003611c645760405162461bcd60e51b815260206004820152601460248201527344656c74612063616e6e6f74206265207a65726f60601b6044820152606401610759565b6001600160a01b038416611cab5760405162461bcd60e51b815260206004820152600e60248201526d24b73b30b634b2103437b63232b960911b6044820152606401610759565b6000868152600b60205260409020600101548714611cdb5760405162461bcd60e51b815260040161075990613244565b6000851315611d7f576000868152600e602090815260408083206001600160a01b0388168452909152812080548792839291611d18908490613274565b90915550506000878152600b602052604081206006018054839290611d3e908490613274565b90915550506000888152600d602052604081208054839290611d61908490613274565b90915550611d799050888860038460008a8c8b6126f3565b50610c40565b6000611d8a8661329a565b6000888152600e602090815260408083206001600160a01b038a168452909152902054909150811115611dff5760405162461bcd60e51b815260206004820152601960248201527f496e73756666696369656e7420686f6c6465722073746f636b000000000000006044820152606401610759565b6000888152600d6020526040902054811115611e5d5760405162461bcd60e51b815260206004820152601a60248201527f496e73756666696369656e742070726f647563742073746f636b0000000000006044820152606401610759565b6000878152600e602090815260408083206001600160a01b038916845290915281208054839290611e8f908490613287565b90915550506000878152600b602052604081206007018054839290611eb5908490613274565b90915550506000888152600d602052604081208054839290611ed8908490613287565b90915550611078905088886003848960008c8b6126f3565b6000546001600160a01b03163314611f1a5760405162461bcd60e51b8152600401610759906132b6565b6000600254118015611f2e57506000600354115b8015611f3c57506000600454115b611f7f5760405162461bcd60e51b8152602060048201526014602482015273149959da5cdd195c881c9bdb195cc8199a5c9cdd60621b6044820152606401610759565b60018054906000611f8f8361308a565b91905055506040518060e00160405280600154815260200183815260200182815260200160008152602001600081526020016000815260200160006004811115611fdb57611fdb612d4e565b90526001805460009081526007602090815260409091208351815590830151909182019061200990826130e9565b506040820151600282019061201e90826130e9565b50606082015181600301556080820151816004015560a0820151816005015560c08201518160060160006101000a81548160ff0219169083600481111561206757612067612d4e565b021790555050600180546000908152601060209081526040808320429081905584548452601183528184208190558454845260128352818420848052909252918290208190559154905133935090917f5c4015d4cf0eeafe6a2291d37bb0278535dee12be24318d5a5cfb3510deabf2c916120e39187916132da565b60405180910390a35050565b6008602052600090815260409020805460018201546002830180546001600160a01b0390931693919261120390612fec565b6000546001600160a01b0316331461214b5760405162461bcd60e51b8152600401610759906132b6565b6001600160a01b0383166121a15760405162461bcd60e51b815260206004820152601960248201527f496e76616c69642077617265686f7573652061646472657373000000000000006044820152606401610759565b600380549060006121b18361308a565b9091555050604080516080810182526001600160a01b0385811682526003546020808401828152848601888152606086018890526000938452600990925294909120835181546001600160a01b0319169316929092178255925160018201559151909190600282019061149590826130e9565b6009602052600090815260409020805460018201546002830180546001600160a01b0390931693919261120390612fec565b60608160008111801561226b57506001548111155b6122875760405162461bcd60e51b815260040161075990613020565b60008381526007602052604081206006015460ff1660048111156122ad576122ad612d4e565b036122e1576040518060400160405280600f81526020016e141c9bd91d58dd0813dc99195c9959608a1b815250915061138b565b600160008481526007602052604090206006015460ff16600481111561230957612309612d4e565b0361234157604051806040016040528060138152602001724d616e75666163747572696e6720537461676560681b815250915061138b565b600260008481526007602052604090206006015460ff16600481111561236957612369612d4e565b0361239d576040518060400160405280600f81526020016e57617265686f75736520537461676560881b815250915061138b565b600360008481526007602052604090206006015460ff1660048111156123c5576123c5612d4e565b036123f6576040518060400160405280600c81526020016b52657461696c20537461676560a01b815250915061138b565b600460008481526007602052604090206006015460ff16600481111561241e5761241e612d4e565b0361244f576040518060400160405280600c81526020016b141c9bd91d58dd0814dbdb1960a21b815250915061138b565b60405162461bcd60e51b815260206004820152600d60248201526c556e6b6e6f776e20737461676560981b6044820152606401610759565b60008160008111801561249c57506005548111155b80156124b957506000818152600b602052604090206009015460ff165b6124d55760405162461bcd60e51b8152600401610759906131ec565b6000838152600b6020526040902060078101546006909101546124f89190613287565b9392505050565b600060015b6003548111612558576000818152600960205260409020546001600160a01b038085169116036125465760009081526009602052604090206001015492915050565b806125508161308a565b915050612504565b50600092915050565b81600481111561257357612573612d4e565b60008481526007602052604090206006015460ff16600481111561259957612599612d4e565b146125d65760405162461bcd60e51b815260206004820152600d60248201526c496e76616c696420737461676560981b6044820152606401610759565b6000838152600760205260409020600601805482919060ff1916600183600481111561260457612604612d4e565b02179055506000838152601260205260408120429183600481111561262b5761262b612d4e565b60ff16815260208082019290925260409081016000908120939093558583526011909152902042905533837f09f680f22c87182ee82fae3c5a59e9549060431a5ebc19eafa319930b085c6ee84600481111561268957612689612d4e565b84600481111561269b5761269b612d4e565b6040805160ff9384168152929091166020830152429082015260600160405180910390a3505050565b60006126cf8261294b565b806126de57506126de82612995565b806126ed57506126ed826129df565b92915050565b600680549060006127038361308a565b9190505550604051806101400160405280600654815260200189815260200188815260200187600381111561273a5761273a612d4e565b8152602001868152602001856001600160a01b03168152602001846001600160a01b0316815260200183815260200182815260200142815250600c6000600654815260200190815260200160002060008201518160000155602082015181600101556040820151816002015560608201518160030160006101000a81548160ff021916908360038111156127d0576127d0612d4e565b02179055506080820151600482015560a08201516005820180546001600160a01b039283166001600160a01b03199182161790915560c084015160068401805491909316911617905560e08201516007820155610100820151600882019061283890826130e9565b50610120820151816009015590505086886006547f293ac978ebaa45f33b4eeb01496f1a82c43fbf7656f0394287a6e8404e24a5248989878a8a894260405161288797969594939291906132fc565b60405180910390a45050505050505050565b600060015b6004548111612558576000818152600a60205260409020546001600160a01b038085169116036128e0576000908152600a602052604090206001015492915050565b806128ea8161308a565b91505061289e565b600060015b6002548111612558576000818152600860205260409020546001600160a01b038085169116036129395760009081526008602052604090206001015492915050565b806129438161308a565b9150506128f7565b600060015b6002548111612558576000818152600860205260409020546001600160a01b038085169116036129835750600192915050565b8061298d8161308a565b915050612950565b600060015b6003548111612558576000818152600960205260409020546001600160a01b038085169116036129cd5750600192915050565b806129d78161308a565b91505061299a565b600060015b6004548111612558576000818152600a60205260409020546001600160a01b03808516911603612a175750600192915050565b80612a218161308a565b9150506129e4565b600060208284031215612a3b57600080fd5b5035919050565b6000815180845260005b81811015612a6857602081850181015186830182015201612a4c565b506000602082860101526020601f19601f83011685010191505092915050565b60006101408c83528b6020840152806040840152612aa88184018c612a42565b90508281036060840152612abc818b612a42565b6080840199909952505060a081019590955260c085019390935260e0840191909152610100830152151561012090910152949350505050565b634e487b7160e01b600052604160045260246000fd5b600082601f830112612b1c57600080fd5b813567ffffffffffffffff80821115612b3757612b37612af5565b604051601f8301601f19908116603f01168101908282118183101715612b5f57612b5f612af5565b81604052838152866020858801011115612b7857600080fd5b836020870160208301376000602085830101528094505050505092915050565b600080600080600060a08688031215612bb057600080fd5b85359450602086013567ffffffffffffffff80821115612bcf57600080fd5b612bdb89838a01612b0b565b95506040880135915080821115612bf157600080fd5b50612bfe88828901612b0b565b9598949750949560608101359550608001359392505050565b80356001600160a01b0381168114612c2e57600080fd5b919050565b600080600080600060a08688031215612c4b57600080fd5b853594506020860135935060408601359250612c6960608701612c17565b9150608086013567ffffffffffffffff811115612c8557600080fd5b612c9188828901612b0b565b9150509295509295909350565b60008060408385031215612cb157600080fd5b82359150602083013560ff81168114612cc957600080fd5b809150509250929050565b60008060008060008060c08789031215612ced57600080fd5b863595506020870135945060408701359350612d0b60608801612c17565b9250612d1960808801612c17565b915060a087013567ffffffffffffffff811115612d3557600080fd5b612d4189828a01612b0b565b9150509295509295509295565b634e487b7160e01b600052602160045260246000fd5b87815260e060208201526000612d7d60e0830189612a42565b8281036040840152612d8f8189612a42565b9150508560608301528460808301528360a083015260058310612db457612db4612d4e565b8260c083015298975050505050505050565b60018060a01b0385168152836020820152608060408201526000612ded6080830185612a42565b8281036060840152612dff8185612a42565b979650505050505050565b60008060408385031215612e1d57600080fd5b82359150612e2d60208401612c17565b90509250929050565b600080600060608486031215612e4b57600080fd5b612e5484612c17565b9250602084013567ffffffffffffffff80821115612e7157600080fd5b612e7d87838801612b0b565b93506040860135915080821115612e9357600080fd5b50612ea086828701612b0b565b9150509250925092565b60048110612eba57612eba612d4e565b9052565b60006101408c83528b60208401528a6040840152612edf606084018b612eaa565b608083018990526001600160a01b0388811660a0850152871660c084015260e083018690526101008301819052612f1881840186612a42565b915050826101208301529b9a5050505050505050505050565b6020808252825182820181905260009190848201906040850190845b81811015612f6957835183529284019291840191600101612f4d565b50909695505050505050565b60008060408385031215612f8857600080fd5b823567ffffffffffffffff80821115612fa057600080fd5b612fac86838701612b0b565b93506020850135915080821115612fc257600080fd5b50612fcf85828601612b0b565b9150509250929050565b6020815260006124f86020830184612a42565b600181811c9082168061300057607f821691505b60208210810361138b57634e487b7160e01b600052602260045260246000fd5b602080825260129082015271125b9d985b1a59081c1c9bd91d58dd081a5960721b604082015260600190565b6020808252600e908201526d139bdd08185d5d1a1bdc9a5e995960921b604082015260600190565b634e487b7160e01b600052601160045260246000fd5b60006001820161309c5761309c613074565b5060010190565b601f8211156107d157600081815260208120601f850160051c810160208610156130ca5750805b601f850160051c820191505b818110156114aa578281556001016130d6565b815167ffffffffffffffff81111561310357613103612af5565b613117816131118454612fec565b846130a3565b602080601f83116001811461314c57600084156131345750858301515b600019600386901b1c1916600185901b1785556114aa565b600085815260208120601f198616915b8281101561317b5788860151825594840194600190910190840161315c565b50858210156131995787850151600019600388901b60f8161c191681555b5050505050600190811b01905550565b60a0815260006131bc60a0830188612a42565b82810360208401526131ce8188612a42565b60408401969096525050606081019290925260809091015292915050565b60208082526010908201526f125b9d985b1a590818985d18da081a5960821b604082015260600190565b60208082526014908201527305175616e74697479206d757374206265203e20360641b604082015260600190565b602080825260169082015275084c2e8c6d05ae0e4dec8eac6e840dad2e6dac2e8c6d60531b604082015260600190565b808201808211156126ed576126ed613074565b818103818111156126ed576126ed613074565b6000600160ff1b82016132af576132af613074565b5060000390565b6020808252600a908201526927b7363c9037bbb732b960b11b604082015260600190565b6040815260006132ed6040830185612a42565b90508260208301529392505050565b6133068189612eaa565b60208101879052604081018690526001600160a01b0385811660608301528416608082015260e060a0820181905260009061334390830185612a42565b90508260c08301529897505050505050505056fea26469706673582212206e6db40219c38ab6558ab0476f48a450cdf2d908640c215df560038594a0a23b64736f6c63430008130033",
  "linkReferences": {},
  "deployedLinkReferences": {}
}