{
  "_format": "hh-sol-artifact-1",
  "contractName": "SupplyChain",
  "sourceName": "contracts/SupplyChain.sol",
  "abi": [
    {
      "inputs": [],
      "stateMutability": "nonpayable",
      "type": "constructor"
    },
    {
      "anonymous": false,
      "inputs": [
        {
          "indexed": true,
          "internalType": "uint256",
          "name": "batchId",
          "type": "uint256"
        },
        {
          "indexed": true,
          "internalType": "uint256",
          "name": "productId",
          "type": "uint256"
        },
        {
          "indexed": false,
          "internalType": "string",
          "name": "batchNumber",
          "type": "string"
        },
        {
          "indexed": false,
          "internalType": "string",
          "name": "supplierBatchRef",
          "type": "string"
        },
        {
          "indexed": false,
          "internalType": "uint256",
          "name": "mfgDate",
          "type": "uint256"
        },
        {
          "indexed": false,
          "internalType": "uint256",
          "name": "expiryDate",
          "type": "uint256"
        },
        {
          "indexed": false,
          "internalType": "uint256",
          "name": "createdAt",
          "type": "uint256"
        }
      ],
      "name": "BatchCreated",
      "type": "event"
    },
    {
      "anonymous": false,
      "inputs": [
        {
          "indexed": true,
          "internalType": "uint256",
          "name": "txId",
          "type": "uint256"
        },
        {
          "indexed": true,
          "internalType": "uint256",
          "name": "productId",
          "type": "uint256"
        },
        {
          "indexed": true,
          "internalType": "uint256",
          "name": "batchId",
          "type": "uint256"
        },
        {
          "indexed": false,
          "internalType": "enum SupplyChain.InventoryAction",
          "name": "action",
          "type": "uint8"
        },
        {
          "indexed": false,
          "internalType": "uint256",
          "name": "quantity",
          "type": "uint256"
        },
        {
          "indexed": false,
          "internalType": "int256",
          "name": "signedDelta",
          "type": "int256"
        },
        {
          "indexed": false,
          "internalType": "address",
          "name": "fromAddr",
          "type": "address"
        },
        {
          "indexed": false,
          "internalType": "address",
          "name": "toAddr",
          "type": "address"
        },
        {
          "indexed": false,
          "internalType": "string",
          "name": "refNote",
          "type": "string"
        },
        {
          "indexed": false,
          "internalType": "uint256",
          "name": "timestamp",
          "type": "uint256"
        }
      ],
      "name": "InventoryChanged",
      "type": "event"
    },
    {
      "anonymous": false,
      "inputs": [
        {
          "indexed": true,
          "internalType": "uint256",
          "name": "productId",
          "type": "uint256"
        },
        {
          "indexed": false,
          "internalType": "string",
          "name": "name",
          "type": "string"
        },
        {
          "indexed": false,
          "internalType": "uint256",
          "name": "timestamp",
          "type": "uint256"
        },
        {
          "indexed": true,
          "internalType": "address",
          "name": "actor",
          "type": "address"
        }
      ],
      "name": "ProductOrdered",
      "type": "event"
    },
    {
      "anonymous": false,
      "inputs": [
        {
          "indexed": true,
          "internalType": "uint256",
          "name": "requestId",
          "type": "uint256"
        },
        {
          "indexed": true,
          "internalType": "address",
          "name": "retailer",
          "type": "address"
        },
        {
          "indexed": false,
          "internalType": "uint256",
          "name": "productId",
          "type": "uint256"
        },
        {
          "indexed": false,
          "internalType": "string",
          "name": "productName",
          "type": "string"
        },
        {
          "indexed": false,
          "internalType": "uint8",
          "name": "status",
          "type": "uint8"
        },
        {
          "indexed": false,
          "internalType": "uint256",
          "name": "timestamp",
          "type": "uint256"
        }
      ],
      "name": "ProductRequestCreated",
      "type": "event"
    },
    {
      "anonymous": false,
      "inputs": [
        {
          "indexed": true,
          "internalType": "uint256",
          "name": "requestId",
          "type": "uint256"
        },
        {
          "indexed": true,
          "internalType": "uint256",
          "name": "productId",
          "type": "uint256"
        },
        {
          "indexed": false,
          "internalType": "uint256",
          "name": "timestamp",
          "type": "uint256"
        }
      ],
      "name": "ProductRequestRoutedToManufacturing",
      "type": "event"
    },
    {
      "anonymous": false,
      "inputs": [
        {
          "indexed": true,
          "internalType": "uint256",
          "name": "requestId",
          "type": "uint256"
        },
        {
          "indexed": false,
          "internalType": "uint8",
          "name": "status",
          "type": "uint8"
        },
        {
          "indexed": false,
          "internalType": "uint256",
          "name": "timestamp",
          "type": "uint256"
        }
      ],
      "name": "ProductRequestUpdated",
      "type": "event"
    },
    {
      "anonymous": false,
      "inputs": [
        {
          "indexed": true,
          "internalType": "uint256",
          "name": "productId",
          "type": "uint256"
        },
        {
          "indexed": false,
          "internalType": "uint8",
          "name": "fromStage",
          "type": "uint8"
        },
        {
          "indexed": false,
          "internalType": "uint8",
          "name": "toStage",
          "type": "uint8"
        },
        {
          "indexed": false,
          "internalType": "uint256",
          "name": "timestamp",
          "type": "uint256"
        },
        {
          "indexed": true,
          "internalType": "address",
          "name": "actor",
          "type": "address"
        }
      ],
      "name": "ProductStageUpdated",
      "type": "event"
    },
    {
      "inputs": [
        {
          "internalType": "uint256",
          "name": "",
          "type": "uint256"
        }
      ],
      "name": "BatchStock",
      "outputs": [
        {
          "internalType": "uint256",
          "name": "id",
          "type": "uint256"
        },
        {
          "internalType": "uint256",
          "name": "productId",
          "type": "uint256"
        },
        {
          "internalType": "string",
          "name": "batchNumber",
          "type": "string"
        },
        {
          "internalType": "string",
          "name": "supplierBatchRef",
          "type": "string"
        },
        {
          "internalType": "uint256",
          "name": "mfgDate",
          "type": "uint256"
        },
        {
          "internalType": "uint256",
          "name": "expiryDate",
          "type": "uint256"
        },
        {
          "internalType": "uint256",
          "name": "totalReceived",
          "type": "uint256"
        },
        {
          "internalType": "uint256",
          "name": "totalIssued",
          "type": "uint256"
        },
        {
          "internalType": "uint256",
          "name": "createdAt",
          "type": "uint256"
        },
        {
          "internalType": "bool",
          "name": "exists",
          "type": "bool"
        }
      ],
      "stateMutability": "view",
      "type": "function"
    },
    {
      "inputs": [
        {
          "internalType": "uint256",
          "name": "",
          "type": "uint256"
        }
      ],
      "name": "InventoryTx",
      "outputs": [
        {
          "internalType": "uint256",
          "name": "id",
          "type": "uint256"
        },
        {
          "internalType": "uint256",
          "name": "productId",
          "type": "uint256"
        },
        {
          "internalType": "uint256",
          "name": "batchId",
          "type": "uint256"
        },
        {
          "internalType": "enum SupplyChain.InventoryAction",
          "name": "action",
          "type": "uint8"
        },
        {
          "internalType": "uint256",
          "name": "quantity",
          "type": "uint256"
        },
        {
          "internalType": "address",
          "name": "fromAddr",
          "type": "address"
        },
        {
          "internalType": "address",
          "name": "toAddr",
          "type": "address"
        },
        {
          "internalType": "int256",
          "name": "signedDelta",
          "type": "int256"
        },
        {
          "internalType": "string",
          "name": "refNote",
          "type": "string"
        },
        {
          "internalType": "uint256",
          "name": "timestamp",
          "type": "uint256"
        }
      ],
      "stateMutability": "view",
      "type": "function"
    },
    {
      "inputs": [
        {
          "internalType": "uint256",
          "name": "",
          "type": "uint256"
        }
      ],
      "name": "MAN",
      "outputs": [
        {
          "internalType": "address",
          "name": "addr",
          "type": "address"
        },
        {
          "internalType": "uint256",
          "name": "id",
          "type": "uint256"
        },
        {
          "internalType": "string",
          "name": "name",
          "type": "string"
        },
        {
          "internalType": "string",
          "name": "place",
          "type": "string"
        }
      ],
      "stateMutability": "view",
      "type": "function"
    },
    {
      "inputs": [
        {
          "internalType": "uint256",
          "name": "_productID",
          "type": "uint256"
        }
      ],
      "name": "Manufacturing",
      "outputs": [],
      "stateMutability": "nonpayable",
      "type": "function"
    },
    {
      "inputs": [],
      "name": "Owner",
      "outputs": [
        {
          "internalType": "address",
          "name": "",
          "type": "address"
        }
      ],
      "stateMutability": "view",
      "type": "function"
    },
    {
      "inputs": [
        {
          "internalType": "uint256",
          "name": "",
          "type": "uint256"
        }
      ],
      "name": "ProductRequests",
      "outputs": [
        {
          "internalType": "uint256",
          "name": "id",
          "type": "uint256"
        },
        {
          "internalType": "address",
          "name": "retailerAddr",
          "type": "address"
        },
        {
          "internalType": "uint256",
          "name": "retailerId",
          "type": "uint256"
        },
        {
          "internalType": "uint256",
          "name": "productId",
          "type": "uint256"
        },
        {
          "internalType": "string",
          "name": "productName",
          "type": "string"
        },
        {
          "internalType": "string",
          "name": "description",
          "type": "string"
        },
        {
          "internalType": "enum SupplyChain.RequestStatus",
          "name": "status",
          "type": "uint8"
        },
        {
          "internalType": "uint256",
          "name": "createdAt",
          "type": "uint256"
        },
        {
          "internalType": "uint256",
          "name": "updatedAt",
          "type": "uint256"
        },
        {
          "internalType": "uint256",
          "name": "linkedFulfillmentProductId",
          "type": "uint256"
        }
      ],
      "stateMutability": "view",
      "type": "function"
    },
    {
      "inputs": [
        {
          "internalType": "uint256",
          "name": "",
          "type": "uint256"
        }
      ],
      "name": "ProductStock",
      "outputs": [
        {
          "internalType": "uint256",
          "name": "id",
          "type": "uint256"
        },
        {
          "internalType": "string",
          "name": "name",
          "type": "string"
        },
        {
          "internalType": "string",
          "name": "description",
          "type": "string"
        },
        {
          "internalType": "uint256",
          "name": "MANid",
          "type": "uint256"
        },
        {
          "internalType": "uint256",
          "name": "WARid",
          "type": "uint256"
        },
        {
          "internalType": "uint256",
          "name": "RETid",
          "type": "uint256"
        },
        {
          "internalType": "enum SupplyChain.STAGE",
          "name": "stage",
          "type": "uint8"
        }
      ],
      "stateMutability": "view",
      "type": "function"
    },
    {
      "inputs": [
        {
          "internalType": "uint256",
          "name": "",
          "type": "uint256"
        }
      ],
      "name": "RET",
      "outputs": [
        {
          "internalType": "address",
          "name": "addr",
          "type": "address"
        },
        {
          "internalType": "uint256",
          "name": "id",
          "type": "uint256"
        },
        {
          "internalType": "string",
          "name": "name",
          "type": "string"
        },
        {
          "internalType": "string",
          "name": "place",
          "type": "string"
        }
      ],
      "stateMutability": "view",
      "type": "function"
    },
    {
      "inputs": [
        {
          "internalType": "uint256",
          "name": "_productID",
          "type": "uint256"
        }
      ],
      "name": "Retail",
      "outputs": [],
      "stateMutability": "nonpayable",
      "type": "function"
    },
    {
      "inputs": [
        {
          "internalType": "uint256",
          "name": "",
          "type": "uint256"
        }
      ],
      "name": "WAR",
      "outputs": [
        {
          "internalType": "address",
          "name": "addr",
          "type": "address"
        },
        {
          "internalType": "uint256",
          "name": "id",
          "type": "uint256"
        },
        {
          "internalType": "string",
          "name": "name",
          "type": "string"
        },
        {
          "internalType": "string",
          "name": "place",
          "type": "string"
        }
      ],
      "stateMutability": "view",
      "type": "function"
    },
    {
      "inputs": [
        {
          "internalType": "uint256",
          "name": "_productID",
          "type": "uint256"
        }
      ],
      "name": "Warehouse",
      "outputs": [],
      "stateMutability": "nonpayable",
      "type": "function"
    },
    {
      "inputs": [
        {
          "internalType": "address",
          "name": "_address",
          "type": "address"
        },
        {
          "internalType": "string",
          "name": "_name",
          "type": "string"
        },
        {
          "internalType": "string",
          "name": "_place",
          "type": "string"
        }
      ],
      "name": "addManufacturer",
      "outputs": [],
      "stateMutability": "nonpayable",
      "type": "function"
    },
    {
      "inputs": [
        {
          "internalType": "string",
          "name": "_name",
          "type": "string"
        },
        {
          "internalType": "string",
          "name": "_description",
          "type": "string"
        }
      ],
      "name": "addProduct",
      "outputs": [],
      "stateMutability": "nonpayable",
      "type": "function"
    },
    {
      "inputs": [
        {
          "internalType": "address",
          "name": "_address",
          "type": "address"
        },
        {
          "internalType": "string",
          "name": "_name",
          "type": "string"
        },
        {
          "internalType": "string",
          "name": "_place",
          "type": "string"
        }
      ],
      "name": "addRetailer",
      "outputs": [],
      "stateMutability": "nonpayable",
      "type": "function"
    },
    {
      "inputs": [
        {
          "internalType": "address",
          "name": "_address",
          "type": "address"
        },
        {
          "internalType": "string",
          "name": "_name",
          "type": "string"
        },
        {
          "internalType": "string",
          "name": "_place",
          "type": "string"
        }
      ],
      "name": "addWarehouse",
      "outputs": [],
      "stateMutability": "nonpayable",
      "type": "function"
    },
    {
      "inputs": [
        {
          "internalType": "uint256",
          "name": "_productID",
          "type": "uint256"
        },
        {
          "internalType": "uint256",
          "name": "_batchID",
          "type": "uint256"
        },
        {
          "internalType": "int256",
          "name": "_quantityDelta",
          "type": "int256"
        },
        {
          "internalType": "address",
          "name": "_holder",
          "type": "address"
        },
        {
          "internalType": "string",
          "name": "_reference",
          "type": "string"
        }
      ],
      "name": "adjustInventory",
      "outputs": [],
      "stateMutability": "nonpayable",
      "type": "function"
    },
    {
      "inputs": [
        {
          "internalType": "uint256",
          "name": "",
          "type": "uint256"
        },
        {
          "internalType": "address",
          "name": "",
          "type": "address"
        }
      ],
      "name": "batchBalanceByHolder",
      "outputs": [
        {
          "internalType": "uint256",
          "name": "",
          "type": "uint256"
        }
      ],
      "stateMutability": "view",
      "type": "function"
    },
    {
      "inputs": [],
      "name": "batchCtr",
      "outputs": [
        {
          "internalType": "uint256",
          "name": "",
          "type": "uint256"
        }
      ],
      "stateMutability": "view",
      "type": "function"
    },
    {
      "inputs": [
        {
          "internalType": "uint256",
          "name": "_productID",
          "type": "uint256"
        },
        {
          "internalType": "string",
          "name": "_batchNumber",
          "type": "string"
        },
        {
          "internalType": "string",
          "name": "_supplierBatchRef",
          "type": "string"
        },
        {
          "internalType": "uint256",
          "name": "_mfgDate",
          "type": "uint256"
        },
        {
          "internalType": "uint256",
          "name": "_expiryDate",
          "type": "uint256"
        }
      ],
      "name": "createBatch",
      "outputs": [
        {
          "internalType": "uint256",
          "name": "",
          "type": "uint256"
        }
      ],
      "stateMutability": "nonpayable",
      "type": "function"
    },
    {
      "inputs": [
        {
          "internalType": "uint256",
          "name": "requestId",
          "type": "uint256"
        }
      ],
      "name": "fulfillBackorderAsAdmin",
      "outputs": [],
      "stateMutability": "nonpayable",
      "type": "function"
    },
    {
      "inputs": [
        {
          "internalType": "uint256",
          "name": "_batchID",
          "type": "uint256"
        }
      ],
      "name": "getBatchRemainingQty",
      "outputs": [
        {
          "internalType": "uint256",
          "name": "",
          "type": "uint256"
        }
      ],
      "stateMutability": "view",
      "type": "function"
    },
    {
      "inputs": [
        {
          "internalType": "uint256",
          "name": "_productID",
          "type": "uint256"
        }
      ],
      "name": "getProductBatchIds",
      "outputs": [
        {
          "internalType": "uint256[]",
          "name": "",
          "type": "uint256[]"
        }
      ],
      "stateMutability": "view",
      "type": "function"
    },
    {
      "inputs": [
        {
          "internalType": "uint256",
          "name": "_productID",
          "type": "uint256"
        }
      ],
      "name": "getProductTimestamps",
      "outputs": [
        {
          "internalType": "uint256",
          "name": "orderedAt",
          "type": "uint256"
        },
        {
          "internalType": "uint256",
          "name": "manufactureAt",
          "type": "uint256"
        },
        {
          "internalType": "uint256",
          "name": "warehouseAt",
          "type": "uint256"
        },
        {
          "internalType": "uint256",
          "name": "retailAt",
          "type": "uint256"
        },
        {
          "internalType": "uint256",
          "name": "soldAt",
          "type": "uint256"
        },
        {
          "internalType": "uint256",
          "name": "updatedAt",
          "type": "uint256"
        }
      ],
      "stateMutability": "view",
      "type": "function"
    },
    {
      "inputs": [],
      "name": "inventoryTxCtr",
      "outputs": [
        {
          "internalType": "uint256",
          "name": "",
          "type": "uint256"
        }
      ],
      "stateMutability": "view",
      "type": "function"
    },
    {
      "inputs": [
        {
          "internalType": "uint256",
          "name": "_batchID",
          "type": "uint256"
        }
      ],
      "name": "isBatchExpired",
      "outputs": [
        {
          "internalType": "bool",
          "name": "",
          "type": "bool"
        }
      ],
      "stateMutability": "view",
      "type": "function"
    },
    {
      "inputs": [
        {
          "internalType": "address",
          "name": "_address",
          "type": "address"
        }
      ],
      "name": "isRetailer",
      "outputs": [
        {
          "internalType": "bool",
          "name": "",
          "type": "bool"
        }
      ],
      "stateMutability": "view",
      "type": "function"
    },
    {
      "inputs": [
        {
          "internalType": "uint256",
          "name": "_productID",
          "type": "uint256"
        },
        {
          "internalType": "uint256",
          "name": "_batchID",
          "type": "uint256"
        },
        {
          "internalType": "uint256",
          "name": "_quantity",
          "type": "uint256"
        },
        {
          "internalType": "address",
          "name": "_from",
          "type": "address"
        },
        {
          "internalType": "address",
          "name": "_to",
          "type": "address"
        },
        {
          "internalType": "string",
          "name": "_reference",
          "type": "string"
        }
      ],
      "name": "issueInventory",
      "outputs": [],
      "stateMutability": "nonpayable",
      "type": "function"
    },
    {
      "inputs": [],
      "name": "manCtr",
      "outputs": [
        {
          "internalType": "uint256",
          "name": "",
          "type": "uint256"
        }
      ],
      "stateMutability": "view",
      "type": "function"
    },
    {
      "inputs": [
        {
          "internalType": "uint256",
          "name": "",
          "type": "uint256"
        }
      ],
      "name": "productCreatedAt",
      "outputs": [
        {
          "internalType": "uint256",
          "name": "",
          "type": "uint256"
        }
      ],
      "stateMutability": "view",
      "type": "function"
    },
    {
      "inputs": [],
      "name": "productCtr",
      "outputs": [
        {
          "internalType": "uint256",
          "name": "",
          "type": "uint256"
        }
      ],
      "stateMutability": "view",
      "type": "function"
    },
    {
      "inputs": [
        {
          "internalType": "uint256",
          "name": "",
          "type": "uint256"
        }
      ],
      "name": "productInventory",
      "outputs": [
        {
          "internalType": "uint256",
          "name": "",
          "type": "uint256"
        }
      ],
      "stateMutability": "view",
      "type": "function"
    },
    {
      "inputs": [
        {
          "internalType": "uint256",
          "name": "",
          "type": "uint256"
        }
      ],
      "name": "productLastUpdatedAt",
      "outputs": [
        {
          "internalType": "uint256",
          "name": "",
          "type": "uint256"
        }
      ],
      "stateMutability": "view",
      "type": "function"
    },
    {
      "inputs": [
        {
          "internalType": "uint256",
          "name": "",
          "type": "uint256"
        },
        {
          "internalType": "uint8",
          "name": "",
          "type": "uint8"
        }
      ],
      "name": "productStageAt",
      "outputs": [
        {
          "internalType": "uint256",
          "name": "",
          "type": "uint256"
        }
      ],
      "stateMutability": "view",
      "type": "function"
    },
    {
      "inputs": [
        {
          "internalType": "uint256",
          "name": "_productID",
          "type": "uint256"
        },
        {
          "internalType": "uint256",
          "name": "_batchID",
          "type": "uint256"
        },
        {
          "internalType": "uint256",
          "name": "_quantity",
          "type": "uint256"
        },
        {
          "internalType": "address",
          "name": "_to",
          "type": "address"
        },
        {
          "internalType": "string",
          "name": "_reference",
          "type": "string"
        }
      ],
      "name": "receiveInventory",
      "outputs": [],
      "stateMutability": "nonpayable",
      "type": "function"
    },
    {
      "inputs": [],
      "name": "requestCtr",
      "outputs": [
        {
          "internalType": "uint256",
          "name": "",
          "type": "uint256"
        }
      ],
      "stateMutability": "view",
      "type": "function"
    },
    {
      "inputs": [
        {
          "internalType": "string",
          "name": "name",
          "type": "string"
        },
        {
          "internalType": "string",
          "name": "description",
          "type": "string"
        }
      ],
      "name": "requestProduct",
      "outputs": [],
      "stateMutability": "nonpayable",
      "type": "function"
    },
    {
      "inputs": [],
      "name": "retCtr",
      "outputs": [
        {
          "internalType": "uint256",
          "name": "",
          "type": "uint256"
        }
      ],
      "stateMutability": "view",
      "type": "function"
    },
    {
      "inputs": [
        {
          "internalType": "uint256",
          "name": "_productID",
          "type": "uint256"
        }
      ],
      "name": "showStage",
      "outputs": [
        {
          "internalType": "string",
          "name": "",
          "type": "string"
        }
      ],
      "stateMutability": "view",
      "type": "function"
    },
    {
      "inputs": [
        {
          "internalType": "uint256",
          "name": "_productID",
          "type": "uint256"
        }
      ],
      "name": "sold",
      "outputs": [],
      "stateMutability": "nonpayable",
      "type": "function"
    },
    {
      "inputs": [
        {
          "internalType": "uint256",
          "name": "_productID",
          "type": "uint256"
        },
        {
          "internalType": "uint256",
          "name": "_batchID",
          "type": "uint256"
        },
        {
          "internalType": "uint256",
          "name": "_quantity",
          "type": "uint256"
        },
        {
          "internalType": "address",
          "name": "_from",
          "type": "address"
        },
        {
          "internalType": "address",
          "name": "_to",
          "type": "address"
        },
        {
          "internalType": "string",
          "name": "_reference",
          "type": "string"
        }
      ],
      "name": "transferInventory",
      "outputs": [],
      "stateMutability": "nonpayable",
      "type": "function"
    },
    {
      "inputs": [],
      "name": "warCtr",
      "outputs": [
        {
          "internalType": "uint256",
          "name": "",
          "type": "uint256"
        }
      ],
      "stateMutability": "view",
      "type": "function"
    },
    {
      "inputs": [
        {
          "internalType": "uint256",
          "name": "_productID",
          "type": "uint256"
        },
        {
          "internalType": "uint256",
          "name": "_quantity",
          "type": "uint256"
        }
      ],
      "name": "warehouseAddStock",
      "outputs": [],
      "stateMutability": "nonpayable",
      "type": "function"
    }
  ],
  "bytecode": "0x6080604052600060015560006002556000600355600060045560006005556000600655600060105534801561003357600080fd5b50600080546001600160a01b03191633179055613fcc806100556000396000f3fe608060405234801561001057600080fd5b506004361061025e5760003560e01c8063857ddb0411610146578063b9453505116100c3578063e101a2e011610087578063e101a2e014610607578063e3c7036b14610627578063e75138d81461063a578063e92b13ae14610643578063ee25cb541461064c578063f06fdd4c1461065f57600080fd5b8063b9453505146105a8578063ca2efb55146105bb578063cc403069146105ce578063d776122d146105e1578063de105526146105f457600080fd5b80639c03facb1161010a5780639c03facb1461053b578063a48d335a1461054e578063aaea34aa14610561578063aaf175b81461056a578063b4a99a4e1461057d57600080fd5b8063857ddb04146104c35780638afc54d9146104d657806394d86714146104df57806397b75ad6146104f25780639b740b2f1461051b57600080fd5b80634e094b35116101df57806363b82eb7116101a357806363b82eb7146104295780636a42ba92146104545780636a992c9f1461046757806379d4e21a1461047a5780637e43d94d1461049a5780638217ad6f146104a357600080fd5b80634e094b351461039757806353c5feed146103aa5780635573d8b2146103bd57806359bf286f146103e35780635da09b881461040657600080fd5b8063307038f111610226578063307038f1146102e75780633a05c8d8146103105780633d753a1c14610350578063438a0a4814610363578063438e9c4d1461038e57600080fd5b8063066bd25c1461026357806311b1851c1461029557806323c55dfa146102aa5780632992825f146102c15780632ef83d0c146102d4575b600080fd5b610276610271366004613419565b61067f565b60405161028c9a99989796959493929190613482565b60405180910390f35b6102a86102a3366004613419565b6107e2565b005b6102b360055481565b60405190815260200161028c565b6102b36102cf366004613592565b61088e565b6102a86102e236600461362d565b610b19565b6102fa6102f5366004613419565b610d01565b60405161028c9a999897969594939291906136ae565b61032361031e366004613419565b610e6f565b604080519687526020870195909552938501929092526060840152608083015260a082015260c00161028c565b6102a861035e366004613419565b610f01565b6102b3610371366004613732565b601460209081526000928352604080842090915290825290205481565b6102b360025481565b6102a86103a5366004613768565b610f7e565b6102a86103b83660046137cc565b6111ae565b6103d06103cb366004613419565b6114b4565b60405161028c9796959493929190613846565b6103f66103f1366004613419565b611603565b60405161028c94939291906138a8565b6104196104143660046138ec565b611746565b604051901515815260200161028c565b6102b3610437366004613907565b600e60209081526000928352604080842090915290825290205481565b610419610462366004613419565b611759565b6102a8610475366004613933565b6117d6565b6102b3610488366004613419565b600d6020526000908152604090205481565b6102b360045481565b6102b36104b1366004613419565b60136020526000908152604090205481565b6102a86104d1366004613933565b6118f7565b6102b360035481565b6102a86104ed3660046137cc565b6119fa565b610505610500366004613419565b611cc4565b60405161028c9a999897969594939291906139bb565b61052e610529366004613419565b611db0565b60405161028c9190613a2e565b6102a8610549366004613419565b611e42565b6102a861055c366004613419565b611efc565b6102b360015481565b6102a861057836600461362d565b611f9d565b600054610590906001600160a01b031681565b6040516001600160a01b03909116815260200161028c565b6102a86105b6366004613419565b612315565b6102a86105c9366004613768565b6125e2565b6103f66105dc366004613419565b612616565b6102a86105ef366004613933565b612648565b6103f6610602366004613419565b61274b565b61061a610615366004613419565b61277d565b60405161028c9190613a72565b6102b3610635366004613419565b6129ae565b6102b360105481565b6102b360065481565b6102a861065a366004613a85565b612a26565b6102b361066d366004613419565b60126020526000908152604090205481565b600b60205260009081526040902080546001820154600283018054929391926106a790613aa7565b80601f01602080910402602001604051908101604052809291908181526020018280546106d390613aa7565b80156107205780601f106106f557610100808354040283529160200191610720565b820191906000526020600020905b81548152906001019060200180831161070357829003601f168201915b50505050509080600301805461073590613aa7565b80601f016020809104026020016040519081016040528092919081815260200182805461076190613aa7565b80156107ae5780601f10610783576101008083540402835291602001916107ae565b820191906000526020600020905b81548152906001019060200180831161079157829003601f168201915b5050506004840154600585015460068601546007870154600888015460099098015496979396929550909350919060ff168a565b806000811180156107f557506001548111155b61081a5760405162461bcd60e51b815260040161081190613adb565b60405180910390fd5b600061082533612b9f565b9050600081116108685760405162461bcd60e51b815260206004820152600e60248201526d4f6e6c792077617265686f75736560901b6044820152606401610811565b60008381526007602052604090206004018190556108898360016002612c01565b505050565b600080546001600160a01b03163314806108ac57506108ac33612d64565b6108c85760405162461bcd60e51b815260040161081190613b07565b856000811180156108db57506001548111155b6108f75760405162461bcd60e51b815260040161081190613adb565b60008651116109405760405162461bcd60e51b815260206004820152601560248201527410985d18da081b9d5b58995c881c995c5d5a5c9959605a1b6044820152606401610811565b82158061094d5750838310155b6109995760405162461bcd60e51b815260206004820152601b60248201527f457870697279206265666f7265206d616e75666163747572696e6700000000006044820152606401610811565b600580549060006109a983613b45565b91905055506040518061014001604052806005548152602001888152602001878152602001868152602001858152602001848152602001600081526020016000815260200142815260200160011515815250600b6000600554815260200190815260200160002060008201518160000155602082015181600101556040820151816002019081610a399190613ba4565b5060608201516003820190610a4e9082613ba4565b506080820151600482015560a082015160058083019190915560c0830151600683015560e083015160078301556101008301516008830155610120909201516009909101805460ff19169115159190911790556000888152600f60209081526040808320845481546001810183559185529290932090920155905490518891907f43a717c856186f9851bb44ec695f54cec2498390001f322d23c67eb394f6f2b290610b03908a908a908a908a904290613c64565b60405180910390a3505060055495945050505050565b6000546001600160a01b0316331480610b365750610b3633612d64565b610b525760405162461bcd60e51b815260040161081190613b07565b84600081118015610b6557506001548111155b610b815760405162461bcd60e51b815260040161081190613adb565b84600081118015610b9457506005548111155b8015610bb157506000818152600b602052604090206009015460ff165b610bcd5760405162461bcd60e51b815260040161081190613ca7565b60008511610bed5760405162461bcd60e51b815260040161081190613cd1565b6001600160a01b038416610c365760405162461bcd60e51b815260206004820152601060248201526f24b73b30b634b2103932b1b2b4bb32b960811b6044820152606401610811565b6000868152600b60205260409020600101548714610c665760405162461bcd60e51b815260040161081190613cff565b6000868152600b602052604081206006018054879290610c87908490613d2f565b90915550506000878152600d602052604081208054879290610caa908490613d2f565b90915550506000868152600e602090815260408083206001600160a01b038816845290915281208054879290610ce1908490613d2f565b90915550610cf8905087876000888189828a612d93565b50505050505050565b6011602052600090815260409020805460018201546002830154600384015460048501805494956001600160a01b039094169492939192610d4190613aa7565b80601f0160208091040260200160405190810160405280929190818152602001828054610d6d90613aa7565b8015610dba5780601f10610d8f57610100808354040283529160200191610dba565b820191906000526020600020905b815481529060010190602001808311610d9d57829003601f168201915b505050505090806005018054610dcf90613aa7565b80601f0160208091040260200160405190810160405280929190818152602001828054610dfb90613aa7565b8015610e485780601f10610e1d57610100808354040283529160200191610e48565b820191906000526020600020905b815481529060010190602001808311610e2b57829003601f168201915b50505050600683015460078401546008850154600990950154939460ff909216939092508a565b60008060008060008086600081118015610e8b57506001548111155b610ea75760405162461bcd60e51b815260040161081190613adb565b505050600085815260146020908152604080832083805282528083205460018452818420546002855282852054600386528386205460048752848720549b8752601390955292909420549099939891975091955093509150565b80600081118015610f1457506001548111155b610f305760405162461bcd60e51b815260040161081190613adb565b6000610f3b33612f39565b905060008111610f5d5760405162461bcd60e51b815260040161081190613d42565b60008381526007602052604090206005018190556108898360026003612c01565b6000610f8933612f39565b11610fa65760405162461bcd60e51b815260040161081190613d42565b6000825111610fe75760405162461bcd60e51b815260206004820152600d60248201526c13985b59481c995c5d5a5c9959609a1b6044820152606401610811565b600081511161102f5760405162461bcd60e51b815260206004820152601460248201527311195cd8dc9a5c1d1a5bdb881c995c5d5a5c995960621b6044820152606401610811565b600061103a83612f92565b9050600061104733612f39565b60108054919250600061105983613b45565b9091555050604080516101408101825260105480825233602080840191825283850186815260608501888152608086018b815260a087018b9052600060c088018190524260e0890181905261010089015261012088018190529586526011909352959093208451815591516001830180546001600160a01b0319166001600160a01b0390921691909117905591516002820155925160038401555190919060048201906111069082613ba4565b5060a0820151600582019061111b9082613ba4565b5060c082015160068201805460ff19166001838181111561113e5761113e613698565b021790555060e0820151600782015561010082015160088201556101209091015160099091015560105433907f4f873156c42bc3533d6fe3ae7a2607005d7c22f3eed3631260865a82e956a4af84876000426040516111a09493929190613d69565b60405180910390a350505050565b6000546001600160a01b03163314806111cb57506111cb33612d64565b6111e75760405162461bcd60e51b815260040161081190613b07565b856000811180156111fa57506001548111155b6112165760405162461bcd60e51b815260040161081190613adb565b8560008111801561122957506005548111155b801561124657506000818152600b602052604090206009015460ff165b6112625760405162461bcd60e51b815260040161081190613ca7565b600086116112825760405162461bcd60e51b815260040161081190613cd1565b6001600160a01b0385166112c95760405162461bcd60e51b815260206004820152600e60248201526d496e76616c696420736f7572636560901b6044820152606401610811565b6001600160a01b0384166113155760405162461bcd60e51b815260206004820152601360248201527224b73b30b634b2103232b9ba34b730ba34b7b760691b6044820152606401610811565b6000878152600b602052604090206001015488146113455760405162461bcd60e51b815260040161081190613cff565b6000878152600e602090815260408083206001600160a01b03891684529091529020548611156113b25760405162461bcd60e51b8152602060048201526018602482015277496e73756666696369656e742062617463682073746f636b60401b6044820152606401610811565b6000888152600d60205260409020548611156114105760405162461bcd60e51b815260206004820152601a60248201527f496e73756666696369656e742070726f647563742073746f636b0000000000006044820152606401610811565b6000878152600e602090815260408083206001600160a01b038916845290915281208054889290611442908490613d98565b90915550506000878152600b602052604081206007018054889290611468908490613d2f565b90915550506000888152600d60205260408120805488929061148b908490613d98565b909155506114aa9050888860018989896114a483613dab565b8a612d93565b5050505050505050565b600760205260009081526040902080546001820180549192916114d690613aa7565b80601f016020809104026020016040519081016040528092919081815260200182805461150290613aa7565b801561154f5780601f106115245761010080835404028352916020019161154f565b820191906000526020600020905b81548152906001019060200180831161153257829003601f168201915b50505050509080600201805461156490613aa7565b80601f016020809104026020016040519081016040528092919081815260200182805461159090613aa7565b80156115dd5780601f106115b2576101008083540402835291602001916115dd565b820191906000526020600020905b8154815290600101906020018083116115c057829003601f168201915b505050506003830154600484015460058501546006909501549394919390925060ff1687565b600a602052600090815260409020805460018201546002830180546001600160a01b0390931693919261163590613aa7565b80601f016020809104026020016040519081016040528092919081815260200182805461166190613aa7565b80156116ae5780601f10611683576101008083540402835291602001916116ae565b820191906000526020600020905b81548152906001019060200180831161169157829003601f168201915b5050505050908060030180546116c390613aa7565b80601f01602080910402602001604051908101604052809291908181526020018280546116ef90613aa7565b801561173c5780601f106117115761010080835404028352916020019161173c565b820191906000526020600020905b81548152906001019060200180831161171f57829003601f168201915b5050505050905084565b60008061175283612f39565b1192915050565b60008160008111801561176e57506005548111155b801561178b57506000818152600b602052604090206009015460ff165b6117a75760405162461bcd60e51b815260040161081190613ca7565b6000838152600b6020526040812060050154908190036117cb5760009250506117d0565b421191505b50919050565b6000546001600160a01b031633146118005760405162461bcd60e51b815260040161081190613dc7565b6001600160a01b0383166118565760405162461bcd60e51b815260206004820152601c60248201527f496e76616c6964206d616e7566616374757265722061646472657373000000006044820152606401610811565b6002805490600061186683613b45565b9091555050604080516080810182526001600160a01b038581168252600280546020808501828152858701898152606087018990526000938452600890925295909120845181546001600160a01b031916941693909317835593516001830155925191929091908201906118da9082613ba4565b50606082015160038201906118ef9082613ba4565b505050505050565b6000546001600160a01b031633146119215760405162461bcd60e51b815260040161081190613dc7565b6001600160a01b0383166119775760405162461bcd60e51b815260206004820152601860248201527f496e76616c69642072657461696c6572206164647265737300000000000000006044820152606401610811565b6004805490600061198783613b45565b9091555050604080516080810182526001600160a01b0385811682526004546020808401828152848601888152606086018890526000938452600a90925294909120835181546001600160a01b031916931692909217825592516001820155915190919060028201906118da9082613ba4565b6000546001600160a01b0316331480611a175750611a1733612d64565b611a335760405162461bcd60e51b815260040161081190613b07565b85600081118015611a4657506001548111155b611a625760405162461bcd60e51b815260040161081190613adb565b85600081118015611a7557506005548111155b8015611a9257506000818152600b602052604090206009015460ff165b611aae5760405162461bcd60e51b815260040161081190613ca7565b60008611611ace5760405162461bcd60e51b815260040161081190613cd1565b6001600160a01b03851615801590611aee57506001600160a01b03841615155b611b3a5760405162461bcd60e51b815260206004820152601860248201527f496e76616c6964207472616e73666572206164647265737300000000000000006044820152606401610811565b836001600160a01b0316856001600160a01b031603611ba65760405162461bcd60e51b815260206004820152602260248201527f536f7572636520616e642064657374696e6174696f6e206d757374206469666660448201526132b960f11b6064820152608401610811565b6000878152600b60205260409020600101548814611bd65760405162461bcd60e51b815260040161081190613cff565b6000878152600e602090815260408083206001600160a01b0389168452909152902054861115611c435760405162461bcd60e51b8152602060048201526018602482015277496e73756666696369656e742062617463682073746f636b60401b6044820152606401610811565b6000878152600e602090815260408083206001600160a01b038916845290915281208054889290611c75908490613d98565b90915550506000878152600e602090815260408083206001600160a01b038816845290915281208054889290611cac908490613d2f565b909155506114aa90508888600289898960008a612d93565b600c6020526000908152604090208054600182015460028301546003840154600485015460058601546006870154600788015460088901805498999798969760ff9096169694956001600160a01b039485169593909416939192611d2790613aa7565b80601f0160208091040260200160405190810160405280929190818152602001828054611d5390613aa7565b8015611da05780601f10611d7557610100808354040283529160200191611da0565b820191906000526020600020905b815481529060010190602001808311611d8357829003601f168201915b505050505090806009015490508a565b606081600081118015611dc557506001548111155b611de15760405162461bcd60e51b815260040161081190613adb565b6000838152600f602090815260409182902080548351818402810184019094528084529091830182828015611e3557602002820191906000526020600020905b815481526020019060010190808311611e21575b5050505050915050919050565b80600081118015611e5557506001548111155b611e715760405162461bcd60e51b815260040161081190613adb565b6000611e7c33612f39565b905060008111611e9e5760405162461bcd60e51b815260040161081190613d42565b6000838152600760205260409020600501548114611eef5760405162461bcd60e51b815260206004820152600e60248201526d2bb937b733903932ba30b4b632b960911b6044820152606401610811565b6108898360036004612c01565b80600081118015611f0f57506001548111155b611f2b5760405162461bcd60e51b815260040161081190613adb565b6000611f3633612ffc565b905060008111611f7c5760405162461bcd60e51b815260206004820152601160248201527027b7363c9036b0b73ab330b1ba3ab932b960791b6044820152606401610811565b60008381526007602052604081206003018290556108899084906001612c01565b6000546001600160a01b03163314611fc75760405162461bcd60e51b815260040161081190613dc7565b84600081118015611fda57506001548111155b611ff65760405162461bcd60e51b815260040161081190613adb565b8460008111801561200957506005548111155b801561202657506000818152600b602052604090206009015460ff165b6120425760405162461bcd60e51b815260040161081190613ca7565b846000036120895760405162461bcd60e51b815260206004820152601460248201527344656c74612063616e6e6f74206265207a65726f60601b6044820152606401610811565b6001600160a01b0384166120d05760405162461bcd60e51b815260206004820152600e60248201526d24b73b30b634b2103437b63232b960911b6044820152606401610811565b6000868152600b602052604090206001015487146121005760405162461bcd60e51b815260040161081190613cff565b60008513156121a4576000868152600e602090815260408083206001600160a01b038816845290915281208054879283929161213d908490613d2f565b90915550506000878152600b602052604081206006018054839290612163908490613d2f565b90915550506000888152600d602052604081208054839290612186908490613d2f565b9091555061219e9050888860038460008a8c8b612d93565b50610cf8565b60006121af86613dab565b6000888152600e602090815260408083206001600160a01b038a1684529091529020549091508111156122245760405162461bcd60e51b815260206004820152601960248201527f496e73756666696369656e7420686f6c6465722073746f636b000000000000006044820152606401610811565b6000888152600d60205260409020548111156122825760405162461bcd60e51b815260206004820152601a60248201527f496e73756666696369656e742070726f647563742073746f636b0000000000006044820152606401610811565b6000878152600e602090815260408083206001600160a01b0389168452909152812080548392906122b4908490613d98565b90915550506000878152600b6020526040812060070180548392906122da908490613d2f565b90915550506000888152600d6020526040812080548392906122fd908490613d98565b909155506114aa905088886003848960008c8b612d93565b6000546001600160a01b0316331461233f5760405162461bcd60e51b815260040161081190613dc7565b600081815260116020526040902080548214801561235d5750600082115b61239b5760405162461bcd60e51b815260206004820152600f60248201526e125b9d985b1a59081c995c5d595cdd608a1b6044820152606401610811565b6000600682015460ff1660018111156123b6576123b6613698565b146123f75760405162461bcd60e51b81526020600482015260116024820152702737ba103832b73234b7339030b236b4b760791b6044820152606401610811565b600381015460008190036125315761252782600401805461241790613aa7565b80601f016020809104026020016040519081016040528092919081815260200182805461244390613aa7565b80156124905780601f1061246557610100808354040283529160200191612490565b820191906000526020600020905b81548152906001019060200180831161247357829003601f168201915b50505050508360050180546124a490613aa7565b80601f01602080910402602001604051908101604052809291908181526020018280546124d090613aa7565b801561251d5780601f106124f25761010080835404028352916020019161251d565b820191906000526020600020905b81548152906001019060200180831161250057829003601f168201915b5050505050613055565b6003830181905590505b6009820181905560068201805460ff191660011790554260088301819055604051908152819084907f580ac182c058aba24d1e55f16a486e4aec33205008ff9f88fcf0e2abcc810a589060200160405180910390a3600682015483907fc2b63a79112715b96e05f26594c122d1493899e2fd51c0998d03d7155224ac909060ff1660018111156125c3576125c3613698565b6040805160ff90921682524260208301520160405180910390a2505050565b6000546001600160a01b0316331461260c5760405162461bcd60e51b815260040161081190613dc7565b6108898282613055565b6008602052600090815260409020805460018201546002830180546001600160a01b0390931693919261163590613aa7565b6000546001600160a01b031633146126725760405162461bcd60e51b815260040161081190613dc7565b6001600160a01b0383166126c85760405162461bcd60e51b815260206004820152601960248201527f496e76616c69642077617265686f7573652061646472657373000000000000006044820152606401610811565b600380549060006126d883613b45565b9091555050604080516080810182526001600160a01b0385811682526003546020808401828152848601888152606086018890526000938452600990925294909120835181546001600160a01b031916931692909217825592516001820155915190919060028201906118da9082613ba4565b6009602052600090815260409020805460018201546002830180546001600160a01b0390931693919261163590613aa7565b60608160008111801561279257506001548111155b6127ae5760405162461bcd60e51b815260040161081190613adb565b60008381526007602052604081206006015460ff1660048111156127d4576127d4613698565b03612808576040518060400160405280600f81526020016e141c9bd91d58dd0813dc99195c9959608a1b81525091506117d0565b600160008481526007602052604090206006015460ff16600481111561283057612830613698565b0361286857604051806040016040528060138152602001724d616e75666163747572696e6720537461676560681b81525091506117d0565b600260008481526007602052604090206006015460ff16600481111561289057612890613698565b036128c4576040518060400160405280600f81526020016e57617265686f75736520537461676560881b81525091506117d0565b600360008481526007602052604090206006015460ff1660048111156128ec576128ec613698565b0361291d576040518060400160405280600c81526020016b52657461696c20537461676560a01b81525091506117d0565b600460008481526007602052604090206006015460ff16600481111561294557612945613698565b03612976576040518060400160405280600c81526020016b141c9bd91d58dd0814dbdb1960a21b81525091506117d0565b60405162461bcd60e51b815260206004820152600d60248201526c556e6b6e6f776e20737461676560981b6044820152606401610811565b6000816000811180156129c357506005548111155b80156129e057506000818152600b602052604090206009015460ff165b6129fc5760405162461bcd60e51b815260040161081190613ca7565b6000838152600b602052604090206007810154600690910154612a1f9190613d98565b9392505050565b81600081118015612a3957506001548111155b612a555760405162461bcd60e51b815260040161081190613adb565b6000612a6033612b9f565b11612a9e5760405162461bcd60e51b815260206004820152600e60248201526d4f6e6c792077617265686f75736560901b6044820152606401610811565b60008211612abe5760405162461bcd60e51b815260040161081190613cd1565b6000838152600f6020526040812080549091908103612b32576000612ae286613231565b612aeb42613231565b604051602001612afc929190613deb565b6040516020818303038152906040529050612b2a86826040518060200160405280600081525042600061088e565b915050612b60565b81548290612b4290600190613d98565b81548110612b5257612b52613e38565b906000526020600020015490505b612b98858286336040518060400160405280601381526020017277617265686f757365206164642073746f636b60681b815250610b19565b5050505050565b600060015b6003548111612bf8576000818152600960205260409020546001600160a01b03808516911603612be65760009081526009602052604090206001015492915050565b80612bf081613b45565b915050612ba4565b50600092915050565b816004811115612c1357612c13613698565b60008481526007602052604090206006015460ff166004811115612c3957612c39613698565b14612c765760405162461bcd60e51b815260206004820152600d60248201526c496e76616c696420737461676560981b6044820152606401610811565b6000838152600760205260409020600601805482919060ff19166001836004811115612ca457612ca4613698565b021790555060008381526014602052604081204291836004811115612ccb57612ccb613698565b60ff16815260208082019290925260409081016000908120939093558583526013909152902042905533837f09f680f22c87182ee82fae3c5a59e9549060431a5ebc19eafa319930b085c6ee846004811115612d2957612d29613698565b846004811115612d3b57612d3b613698565b6040805160ff9384168152929091166020830152429082015260600160405180910390a3505050565b6000612d6f8261333b565b80612d7e5750612d7e82613385565b80612d8d5750612d8d826133cf565b92915050565b60068054906000612da383613b45565b91905055506040518061014001604052806006548152602001898152602001888152602001876003811115612dda57612dda613698565b8152602001868152602001856001600160a01b03168152602001846001600160a01b0316815260200183815260200182815260200142815250600c6000600654815260200190815260200160002060008201518160000155602082015181600101556040820151816002015560608201518160030160006101000a81548160ff02191690836003811115612e7057612e70613698565b02179055506080820151600482015560a08201516005820180546001600160a01b039283166001600160a01b03199182161790915560c084015160068401805491909316911617905560e082015160078201556101008201516008820190612ed89082613ba4565b50610120820151816009015590505086886006547f293ac978ebaa45f33b4eeb01496f1a82c43fbf7656f0394287a6e8404e24a5248989878a8a8942604051612f279796959493929190613e4e565b60405180910390a45050505050505050565b600060015b6004548111612bf8576000818152600a60205260409020546001600160a01b03808516911603612f80576000908152600a602052604090206001015492915050565b80612f8a81613b45565b915050612f3e565b8051602082012060009060015b6001548111612ff2578160076000838152602001908152602001600020600101604051612fcc9190613ea9565b604051809103902003612fe0579392505050565b80612fea81613b45565b915050612f9f565b5060009392505050565b600060015b6002548111612bf8576000818152600860205260409020546001600160a01b038085169116036130435760009081526008602052604090206001015492915050565b8061304d81613b45565b915050613001565b60008060025411801561306a57506000600354115b801561307857506000600454115b6130bb5760405162461bcd60e51b8152602060048201526014602482015273149959da5cdd195c881c9bdb195cc8199a5c9cdd60621b6044820152606401610811565b600180549060006130cb83613b45565b91905055506040518060e0016040528060015481526020018481526020018381526020016000815260200160008152602001600081526020016000600481111561311757613117613698565b9052600180546000908152600760209081526040909120835181559083015190918201906131459082613ba4565b506040820151600282019061315a9082613ba4565b50606082015181600301556080820151816004015560a0820151816005015560c08201518160060160006101000a81548160ff021916908360048111156131a3576131a3613698565b021790555050600180546000908152601260209081526040808320429081905584548452601383528184208190558454845260148352818420848052909252918290208190559154905133935090917f5c4015d4cf0eeafe6a2291d37bb0278535dee12be24318d5a5cfb3510deabf2c9161321f918891613f1f565b60405180910390a35060015492915050565b6060816000036132585750506040805180820190915260018152600360fc1b602082015290565b8160005b8115613282578061326c81613b45565b915061327b9050600a83613f57565b915061325c565b60008167ffffffffffffffff81111561329d5761329d6134ef565b6040519080825280601f01601f1916602001820160405280156132c7576020820181803683370190505b5090505b841561333357816132db81613f6b565b92506132ea9050600a86613f82565b6132f5906030613d2f565b60f81b81838151811061330a5761330a613e38565b60200101906001600160f81b031916908160001a90535061332c600a86613f57565b94506132cb565b949350505050565b600060015b6002548111612bf8576000818152600860205260409020546001600160a01b038085169116036133735750600192915050565b8061337d81613b45565b915050613340565b600060015b6003548111612bf8576000818152600960205260409020546001600160a01b038085169116036133bd5750600192915050565b806133c781613b45565b91505061338a565b600060015b6004548111612bf8576000818152600a60205260409020546001600160a01b038085169116036134075750600192915050565b8061341181613b45565b9150506133d4565b60006020828403121561342b57600080fd5b5035919050565b60005b8381101561344d578181015183820152602001613435565b50506000910152565b6000815180845261346e816020860160208601613432565b601f01601f19169290920160200192915050565b60006101408c83528b60208401528060408401526134a28184018c613456565b905082810360608401526134b6818b613456565b6080840199909952505060a081019590955260c085019390935260e0840191909152610100830152151561012090910152949350505050565b634e487b7160e01b600052604160045260246000fd5b600082601f83011261351657600080fd5b813567ffffffffffffffff80821115613531576135316134ef565b604051601f8301601f19908116603f01168101908282118183101715613559576135596134ef565b8160405283815286602085880101111561357257600080fd5b836020870160208301376000602085830101528094505050505092915050565b600080600080600060a086880312156135aa57600080fd5b85359450602086013567ffffffffffffffff808211156135c957600080fd5b6135d589838a01613505565b955060408801359150808211156135eb57600080fd5b506135f888828901613505565b9598949750949560608101359550608001359392505050565b80356001600160a01b038116811461362857600080fd5b919050565b600080600080600060a0868803121561364557600080fd5b85359450602086013593506040860135925061366360608701613611565b9150608086013567ffffffffffffffff81111561367f57600080fd5b61368b88828901613505565b9150509295509295909350565b634e487b7160e01b600052602160045260246000fd5b60006101408c835260018060a01b038c1660208401528a60408401528960608401528060808401526136e28184018a613456565b905082810360a08401526136f68189613456565b9150506002861061370957613709613698565b8560c08301528460e083015283610100830152826101208301529b9a5050505050505050505050565b6000806040838503121561374557600080fd5b82359150602083013560ff8116811461375d57600080fd5b809150509250929050565b6000806040838503121561377b57600080fd5b823567ffffffffffffffff8082111561379357600080fd5b61379f86838701613505565b935060208501359150808211156137b557600080fd5b506137c285828601613505565b9150509250929050565b60008060008060008060c087890312156137e557600080fd5b86359550602087013594506040870135935061380360608801613611565b925061381160808801613611565b915060a087013567ffffffffffffffff81111561382d57600080fd5b61383989828a01613505565b9150509295509295509295565b87815260e06020820152600061385f60e0830189613456565b82810360408401526138718189613456565b9150508560608301528460808301528360a08301526005831061389657613896613698565b8260c083015298975050505050505050565b60018060a01b03851681528360208201526080604082015260006138cf6080830185613456565b82810360608401526138e18185613456565b979650505050505050565b6000602082840312156138fe57600080fd5b612a1f82613611565b6000806040838503121561391a57600080fd5b8235915061392a60208401613611565b90509250929050565b60008060006060848603121561394857600080fd5b61395184613611565b9250602084013567ffffffffffffffff8082111561396e57600080fd5b61397a87838801613505565b9350604086013591508082111561399057600080fd5b5061399d86828701613505565b9150509250925092565b600481106139b7576139b7613698565b9052565b60006101408c83528b60208401528a60408401526139dc606084018b6139a7565b608083018990526001600160a01b0388811660a0850152871660c084015260e083018690526101008301819052613a1581840186613456565b915050826101208301529b9a5050505050505050505050565b6020808252825182820181905260009190848201906040850190845b81811015613a6657835183529284019291840191600101613a4a565b50909695505050505050565b602081526000612a1f6020830184613456565b60008060408385031215613a9857600080fd5b50508035926020909101359150565b600181811c90821680613abb57607f821691505b6020821081036117d057634e487b7160e01b600052602260045260246000fd5b602080825260129082015271125b9d985b1a59081c1c9bd91d58dd081a5960721b604082015260600190565b6020808252600e908201526d139bdd08185d5d1a1bdc9a5e995960921b604082015260600190565b634e487b7160e01b600052601160045260246000fd5b600060018201613b5757613b57613b2f565b5060010190565b601f82111561088957600081815260208120601f850160051c81016020861015613b855750805b601f850160051c820191505b818110156118ef57828155600101613b91565b815167ffffffffffffffff811115613bbe57613bbe6134ef565b613bd281613bcc8454613aa7565b84613b5e565b602080601f831160018114613c075760008415613bef5750858301515b600019600386901b1c1916600185901b1785556118ef565b600085815260208120601f198616915b82811015613c3657888601518255948401946001909101908401613c17565b5085821015613c545787850151600019600388901b60f8161c191681555b5050505050600190811b01905550565b60a081526000613c7760a0830188613456565b8281036020840152613c898188613456565b60408401969096525050606081019290925260809091015292915050565b60208082526010908201526f125b9d985b1a590818985d18da081a5960821b604082015260600190565b60208082526014908201527305175616e74697479206d757374206265203e20360641b604082015260600190565b602080825260169082015275084c2e8c6d05ae0e4dec8eac6e840dad2e6dac2e8c6d60531b604082015260600190565b80820180821115612d8d57612d8d613b2f565b6020808252600d908201526c27b7363c903932ba30b4b632b960991b604082015260600190565b848152608060208201526000613d826080830186613456565b60ff949094166040830152506060015292915050565b81810381811115612d8d57612d8d613b2f565b6000600160ff1b8201613dc057613dc0613b2f565b5060000390565b6020808252600a908201526927b7363c9037bbb732b960b11b604082015260600190565b644155544f2d60d81b815260008351613e0b816005850160208801613432565b602d60f81b6005918401918201528351613e2c816006840160208801613432565b01600601949350505050565b634e487b7160e01b600052603260045260246000fd5b613e5881896139a7565b60208101879052604081018690526001600160a01b0385811660608301528416608082015260e060a08201819052600090613e9590830185613456565b90508260c083015298975050505050505050565b6000808354613eb781613aa7565b60018281168015613ecf5760018114613ee457613f13565b60ff1984168752821515830287019450613f13565b8760005260208060002060005b85811015613f0a5781548a820152908401908201613ef1565b50505082870194505b50929695505050505050565b604081526000613f326040830185613456565b90508260208301529392505050565b634e487b7160e01b600052601260045260246000fd5b600082613f6657613f66613f41565b500490565b600081613f7a57613f7a613b2f565b506000190190565b600082613f9157613f91613f41565b50069056fea26469706673582212209e92e0bade2683d8a969c9e1f586099dcb33cd4e3becb58c59686fcb14507fd464736f6c63430008130033",
  "linkReferences": {},
  "deployedLinkReferences": {}
}