{
  "_format": "hh-sol-artifact-1",
  "contractName": "SupplyChain",
  "sourceName": "contracts/SupplyChain.sol",
  "abi": [
    {
      "inputs": [],
      "stateMutability": "nonpayable",
      "type": "constructor"
    },
    {
      "anonymous": false,
      "inputs": [
        {
          "indexed": true,
          "internalType": "uint256",
          "name": "batchId",
          "type": "uint256"
        },
        {
          "indexed": true,
          "internalType": "uint256",
          "name": "medicineId",
          "type": "uint256"
        },
        {
          "indexed": false,
          "internalType": "string",
          "name": "batchNumber",
          "type": "string"
        },
        {
          "indexed": false,
          "internalType": "string",
          "name": "supplierBatchRef",
          "type": "string"
        },
        {
          "indexed": false,
          "internalType": "uint256",
          "name": "mfgDate",
          "type": "uint256"
        },
        {
          "indexed": false,
          "internalType": "uint256",
          "name": "expiryDate",
          "type": "uint256"
        },
        {
          "indexed": false,
          "internalType": "uint256",
          "name": "createdAt",
          "type": "uint256"
        }
      ],
      "name": "BatchCreated",
      "type": "event"
    },
    {
      "anonymous": false,
      "inputs": [
        {
          "indexed": true,
          "internalType": "uint256",
          "name": "txId",
          "type": "uint256"
        },
        {
          "indexed": true,
          "internalType": "uint256",
          "name": "medicineId",
          "type": "uint256"
        },
        {
          "indexed": true,
          "internalType": "uint256",
          "name": "batchId",
          "type": "uint256"
        },
        {
          "indexed": false,
          "internalType": "enum SupplyChain.InventoryAction",
          "name": "action",
          "type": "uint8"
        },
        {
          "indexed": false,
          "internalType": "uint256",
          "name": "quantity",
          "type": "uint256"
        },
        {
          "indexed": false,
          "internalType": "int256",
          "name": "signedDelta",
          "type": "int256"
        },
        {
          "indexed": false,
          "internalType": "address",
          "name": "fromAddr",
          "type": "address"
        },
        {
          "indexed": false,
          "internalType": "address",
          "name": "toAddr",
          "type": "address"
        },
        {
          "indexed": false,
          "internalType": "string",
          "name": "refNote",
          "type": "string"
        },
        {
          "indexed": false,
          "internalType": "uint256",
          "name": "timestamp",
          "type": "uint256"
        }
      ],
      "name": "InventoryChanged",
      "type": "event"
    },
    {
      "anonymous": false,
      "inputs": [
        {
          "indexed": true,
          "internalType": "uint256",
          "name": "medicineId",
          "type": "uint256"
        },
        {
          "indexed": false,
          "internalType": "string",
          "name": "name",
          "type": "string"
        },
        {
          "indexed": false,
          "internalType": "uint256",
          "name": "timestamp",
          "type": "uint256"
        },
        {
          "indexed": true,
          "internalType": "address",
          "name": "actor",
          "type": "address"
        }
      ],
      "name": "MedicineOrdered",
      "type": "event"
    },
    {
      "anonymous": false,
      "inputs": [
        {
          "indexed": true,
          "internalType": "uint256",
          "name": "medicineId",
          "type": "uint256"
        },
        {
          "indexed": false,
          "internalType": "uint8",
          "name": "fromStage",
          "type": "uint8"
        },
        {
          "indexed": false,
          "internalType": "uint8",
          "name": "toStage",
          "type": "uint8"
        },
        {
          "indexed": false,
          "internalType": "uint256",
          "name": "timestamp",
          "type": "uint256"
        },
        {
          "indexed": true,
          "internalType": "address",
          "name": "actor",
          "type": "address"
        }
      ],
      "name": "MedicineStageUpdated",
      "type": "event"
    },
    {
      "inputs": [
        {
          "internalType": "uint256",
          "name": "",
          "type": "uint256"
        }
      ],
      "name": "BatchStock",
      "outputs": [
        {
          "internalType": "uint256",
          "name": "id",
          "type": "uint256"
        },
        {
          "internalType": "uint256",
          "name": "medicineId",
          "type": "uint256"
        },
        {
          "internalType": "string",
          "name": "batchNumber",
          "type": "string"
        },
        {
          "internalType": "string",
          "name": "supplierBatchRef",
          "type": "string"
        },
        {
          "internalType": "uint256",
          "name": "mfgDate",
          "type": "uint256"
        },
        {
          "internalType": "uint256",
          "name": "expiryDate",
          "type": "uint256"
        },
        {
          "internalType": "uint256",
          "name": "totalReceived",
          "type": "uint256"
        },
        {
          "internalType": "uint256",
          "name": "totalIssued",
          "type": "uint256"
        },
        {
          "internalType": "uint256",
          "name": "createdAt",
          "type": "uint256"
        },
        {
          "internalType": "bool",
          "name": "exists",
          "type": "bool"
        }
      ],
      "stateMutability": "view",
      "type": "function"
    },
    {
      "inputs": [
        {
          "internalType": "uint256",
          "name": "",
          "type": "uint256"
        }
      ],
      "name": "DIS",
      "outputs": [
        {
          "internalType": "address",
          "name": "addr",
          "type": "address"
        },
        {
          "internalType": "uint256",
          "name": "id",
          "type": "uint256"
        },
        {
          "internalType": "string",
          "name": "name",
          "type": "string"
        },
        {
          "internalType": "string",
          "name": "place",
          "type": "string"
        }
      ],
      "stateMutability": "view",
      "type": "function"
    },
    {
      "inputs": [
        {
          "internalType": "uint256",
          "name": "_medicineID",
          "type": "uint256"
        }
      ],
      "name": "Distribute",
      "outputs": [],
      "stateMutability": "nonpayable",
      "type": "function"
    },
    {
      "inputs": [
        {
          "internalType": "uint256",
          "name": "",
          "type": "uint256"
        }
      ],
      "name": "InventoryTx",
      "outputs": [
        {
          "internalType": "uint256",
          "name": "id",
          "type": "uint256"
        },
        {
          "internalType": "uint256",
          "name": "medicineId",
          "type": "uint256"
        },
        {
          "internalType": "uint256",
          "name": "batchId",
          "type": "uint256"
        },
        {
          "internalType": "enum SupplyChain.InventoryAction",
          "name": "action",
          "type": "uint8"
        },
        {
          "internalType": "uint256",
          "name": "quantity",
          "type": "uint256"
        },
        {
          "internalType": "address",
          "name": "fromAddr",
          "type": "address"
        },
        {
          "internalType": "address",
          "name": "toAddr",
          "type": "address"
        },
        {
          "internalType": "int256",
          "name": "signedDelta",
          "type": "int256"
        },
        {
          "internalType": "string",
          "name": "refNote",
          "type": "string"
        },
        {
          "internalType": "uint256",
          "name": "timestamp",
          "type": "uint256"
        }
      ],
      "stateMutability": "view",
      "type": "function"
    },
    {
      "inputs": [
        {
          "internalType": "uint256",
          "name": "",
          "type": "uint256"
        }
      ],
      "name": "MAN",
      "outputs": [
        {
          "internalType": "address",
          "name": "addr",
          "type": "address"
        },
        {
          "internalType": "uint256",
          "name": "id",
          "type": "uint256"
        },
        {
          "internalType": "string",
          "name": "name",
          "type": "string"
        },
        {
          "internalType": "string",
          "name": "place",
          "type": "string"
        }
      ],
      "stateMutability": "view",
      "type": "function"
    },
    {
      "inputs": [
        {
          "internalType": "uint256",
          "name": "_medicineID",
          "type": "uint256"
        }
      ],
      "name": "Manufacturing",
      "outputs": [],
      "stateMutability": "nonpayable",
      "type": "function"
    },
    {
      "inputs": [
        {
          "internalType": "uint256",
          "name": "",
          "type": "uint256"
        }
      ],
      "name": "MedicineStock",
      "outputs": [
        {
          "internalType": "uint256",
          "name": "id",
          "type": "uint256"
        },
        {
          "internalType": "string",
          "name": "name",
          "type": "string"
        },
        {
          "internalType": "string",
          "name": "description",
          "type": "string"
        },
        {
          "internalType": "uint256",
          "name": "RMSid",
          "type": "uint256"
        },
        {
          "internalType": "uint256",
          "name": "MANid",
          "type": "uint256"
        },
        {
          "internalType": "uint256",
          "name": "DISid",
          "type": "uint256"
        },
        {
          "internalType": "uint256",
          "name": "RETid",
          "type": "uint256"
        },
        {
          "internalType": "enum SupplyChain.STAGE",
          "name": "stage",
          "type": "uint8"
        }
      ],
      "stateMutability": "view",
      "type": "function"
    },
    {
      "inputs": [],
      "name": "Owner",
      "outputs": [
        {
          "internalType": "address",
          "name": "",
          "type": "address"
        }
      ],
      "stateMutability": "view",
      "type": "function"
    },
    {
      "inputs": [
        {
          "internalType": "uint256",
          "name": "",
          "type": "uint256"
        }
      ],
      "name": "RET",
      "outputs": [
        {
          "internalType": "address",
          "name": "addr",
          "type": "address"
        },
        {
          "internalType": "uint256",
          "name": "id",
          "type": "uint256"
        },
        {
          "internalType": "string",
          "name": "name",
          "type": "string"
        },
        {
          "internalType": "string",
          "name": "place",
          "type": "string"
        }
      ],
      "stateMutability": "view",
      "type": "function"
    },
    {
      "inputs": [
        {
          "internalType": "uint256",
          "name": "",
          "type": "uint256"
        }
      ],
      "name": "RMS",
      "outputs": [
        {
          "internalType": "address",
          "name": "addr",
          "type": "address"
        },
        {
          "internalType": "uint256",
          "name": "id",
          "type": "uint256"
        },
        {
          "internalType": "string",
          "name": "name",
          "type": "string"
        },
        {
          "internalType": "string",
          "name": "place",
          "type": "string"
        }
      ],
      "stateMutability": "view",
      "type": "function"
    },
    {
      "inputs": [
        {
          "internalType": "uint256",
          "name": "_medicineID",
          "type": "uint256"
        }
      ],
      "name": "RMSsupply",
      "outputs": [],
      "stateMutability": "nonpayable",
      "type": "function"
    },
    {
      "inputs": [
        {
          "internalType": "uint256",
          "name": "_medicineID",
          "type": "uint256"
        }
      ],
      "name": "Retail",
      "outputs": [],
      "stateMutability": "nonpayable",
      "type": "function"
    },
    {
      "inputs": [
        {
          "internalType": "address",
          "name": "_address",
          "type": "address"
        },
        {
          "internalType": "string",
          "name": "_name",
          "type": "string"
        },
        {
          "internalType": "string",
          "name": "_place",
          "type": "string"
        }
      ],
      "name": "addDistributor",
      "outputs": [],
      "stateMutability": "nonpayable",
      "type": "function"
    },
    {
      "inputs": [
        {
          "internalType": "address",
          "name": "_address",
          "type": "address"
        },
        {
          "internalType": "string",
          "name": "_name",
          "type": "string"
        },
        {
          "internalType": "string",
          "name": "_place",
          "type": "string"
        }
      ],
      "name": "addManufacturer",
      "outputs": [],
      "stateMutability": "nonpayable",
      "type": "function"
    },
    {
      "inputs": [
        {
          "internalType": "string",
          "name": "_name",
          "type": "string"
        },
        {
          "internalType": "string",
          "name": "_description",
          "type": "string"
        }
      ],
      "name": "addMedicine",
      "outputs": [],
      "stateMutability": "nonpayable",
      "type": "function"
    },
    {
      "inputs": [
        {
          "internalType": "address",
          "name": "_address",
          "type": "address"
        },
        {
          "internalType": "string",
          "name": "_name",
          "type": "string"
        },
        {
          "internalType": "string",
          "name": "_place",
          "type": "string"
        }
      ],
      "name": "addRMS",
      "outputs": [],
      "stateMutability": "nonpayable",
      "type": "function"
    },
    {
      "inputs": [
        {
          "internalType": "address",
          "name": "_address",
          "type": "address"
        },
        {
          "internalType": "string",
          "name": "_name",
          "type": "string"
        },
        {
          "internalType": "string",
          "name": "_place",
          "type": "string"
        }
      ],
      "name": "addRetailer",
      "outputs": [],
      "stateMutability": "nonpayable",
      "type": "function"
    },
    {
      "inputs": [
        {
          "internalType": "uint256",
          "name": "_medicineID",
          "type": "uint256"
        },
        {
          "internalType": "uint256",
          "name": "_batchID",
          "type": "uint256"
        },
        {
          "internalType": "int256",
          "name": "_quantityDelta",
          "type": "int256"
        },
        {
          "internalType": "address",
          "name": "_holder",
          "type": "address"
        },
        {
          "internalType": "string",
          "name": "_reference",
          "type": "string"
        }
      ],
      "name": "adjustInventory",
      "outputs": [],
      "stateMutability": "nonpayable",
      "type": "function"
    },
    {
      "inputs": [
        {
          "internalType": "uint256",
          "name": "",
          "type": "uint256"
        },
        {
          "internalType": "address",
          "name": "",
          "type": "address"
        }
      ],
      "name": "batchBalanceByHolder",
      "outputs": [
        {
          "internalType": "uint256",
          "name": "",
          "type": "uint256"
        }
      ],
      "stateMutability": "view",
      "type": "function"
    },
    {
      "inputs": [],
      "name": "batchCtr",
      "outputs": [
        {
          "internalType": "uint256",
          "name": "",
          "type": "uint256"
        }
      ],
      "stateMutability": "view",
      "type": "function"
    },
    {
      "inputs": [
        {
          "internalType": "uint256",
          "name": "_medicineID",
          "type": "uint256"
        },
        {
          "internalType": "string",
          "name": "_batchNumber",
          "type": "string"
        },
        {
          "internalType": "string",
          "name": "_supplierBatchRef",
          "type": "string"
        },
        {
          "internalType": "uint256",
          "name": "_mfgDate",
          "type": "uint256"
        },
        {
          "internalType": "uint256",
          "name": "_expiryDate",
          "type": "uint256"
        }
      ],
      "name": "createBatch",
      "outputs": [
        {
          "internalType": "uint256",
          "name": "",
          "type": "uint256"
        }
      ],
      "stateMutability": "nonpayable",
      "type": "function"
    },
    {
      "inputs": [],
      "name": "disCtr",
      "outputs": [
        {
          "internalType": "uint256",
          "name": "",
          "type": "uint256"
        }
      ],
      "stateMutability": "view",
      "type": "function"
    },
    {
      "inputs": [
        {
          "internalType": "uint256",
          "name": "_batchID",
          "type": "uint256"
        }
      ],
      "name": "getBatchRemainingQty",
      "outputs": [
        {
          "internalType": "uint256",
          "name": "",
          "type": "uint256"
        }
      ],
      "stateMutability": "view",
      "type": "function"
    },
    {
      "inputs": [
        {
          "internalType": "uint256",
          "name": "_medicineID",
          "type": "uint256"
        }
      ],
      "name": "getMedicineBatchIds",
      "outputs": [
        {
          "internalType": "uint256[]",
          "name": "",
          "type": "uint256[]"
        }
      ],
      "stateMutability": "view",
      "type": "function"
    },
    {
      "inputs": [
        {
          "internalType": "uint256",
          "name": "_medicineID",
          "type": "uint256"
        }
      ],
      "name": "getMedicineTimestamps",
      "outputs": [
        {
          "internalType": "uint256",
          "name": "orderedAt",
          "type": "uint256"
        },
        {
          "internalType": "uint256",
          "name": "rawSupplyAt",
          "type": "uint256"
        },
        {
          "internalType": "uint256",
          "name": "manufactureAt",
          "type": "uint256"
        },
        {
          "internalType": "uint256",
          "name": "distributionAt",
          "type": "uint256"
        },
        {
          "internalType": "uint256",
          "name": "retailAt",
          "type": "uint256"
        },
        {
          "internalType": "uint256",
          "name": "soldAt",
          "type": "uint256"
        },
        {
          "internalType": "uint256",
          "name": "updatedAt",
          "type": "uint256"
        }
      ],
      "stateMutability": "view",
      "type": "function"
    },
    {
      "inputs": [],
      "name": "inventoryTxCtr",
      "outputs": [
        {
          "internalType": "uint256",
          "name": "",
          "type": "uint256"
        }
      ],
      "stateMutability": "view",
      "type": "function"
    },
    {
      "inputs": [
        {
          "internalType": "uint256",
          "name": "_batchID",
          "type": "uint256"
        }
      ],
      "name": "isBatchExpired",
      "outputs": [
        {
          "internalType": "bool",
          "name": "",
          "type": "bool"
        }
      ],
      "stateMutability": "view",
      "type": "function"
    },
    {
      "inputs": [
        {
          "internalType": "uint256",
          "name": "_medicineID",
          "type": "uint256"
        },
        {
          "internalType": "uint256",
          "name": "_batchID",
          "type": "uint256"
        },
        {
          "internalType": "uint256",
          "name": "_quantity",
          "type": "uint256"
        },
        {
          "internalType": "address",
          "name": "_from",
          "type": "address"
        },
        {
          "internalType": "address",
          "name": "_to",
          "type": "address"
        },
        {
          "internalType": "string",
          "name": "_reference",
          "type": "string"
        }
      ],
      "name": "issueInventory",
      "outputs": [],
      "stateMutability": "nonpayable",
      "type": "function"
    },
    {
      "inputs": [],
      "name": "manCtr",
      "outputs": [
        {
          "internalType": "uint256",
          "name": "",
          "type": "uint256"
        }
      ],
      "stateMutability": "view",
      "type": "function"
    },
    {
      "inputs": [
        {
          "internalType": "uint256",
          "name": "",
          "type": "uint256"
        }
      ],
      "name": "medicineCreatedAt",
      "outputs": [
        {
          "internalType": "uint256",
          "name": "",
          "type": "uint256"
        }
      ],
      "stateMutability": "view",
      "type": "function"
    },
    {
      "inputs": [],
      "name": "medicineCtr",
      "outputs": [
        {
          "internalType": "uint256",
          "name": "",
          "type": "uint256"
        }
      ],
      "stateMutability": "view",
      "type": "function"
    },
    {
      "inputs": [
        {
          "internalType": "uint256",
          "name": "",
          "type": "uint256"
        }
      ],
      "name": "medicineInventory",
      "outputs": [
        {
          "internalType": "uint256",
          "name": "",
          "type": "uint256"
        }
      ],
      "stateMutability": "view",
      "type": "function"
    },
    {
      "inputs": [
        {
          "internalType": "uint256",
          "name": "",
          "type": "uint256"
        }
      ],
      "name": "medicineLastUpdatedAt",
      "outputs": [
        {
          "internalType": "uint256",
          "name": "",
          "type": "uint256"
        }
      ],
      "stateMutability": "view",
      "type": "function"
    },
    {
      "inputs": [
        {
          "internalType": "uint256",
          "name": "",
          "type": "uint256"
        },
        {
          "internalType": "uint8",
          "name": "",
          "type": "uint8"
        }
      ],
      "name": "medicineStageAt",
      "outputs": [
        {
          "internalType": "uint256",
          "name": "",
          "type": "uint256"
        }
      ],
      "stateMutability": "view",
      "type": "function"
    },
    {
      "inputs": [
        {
          "internalType": "uint256",
          "name": "_medicineID",
          "type": "uint256"
        },
        {
          "internalType": "uint256",
          "name": "_batchID",
          "type": "uint256"
        },
        {
          "internalType": "uint256",
          "name": "_quantity",
          "type": "uint256"
        },
        {
          "internalType": "address",
          "name": "_to",
          "type": "address"
        },
        {
          "internalType": "string",
          "name": "_reference",
          "type": "string"
        }
      ],
      "name": "receiveInventory",
      "outputs": [],
      "stateMutability": "nonpayable",
      "type": "function"
    },
    {
      "inputs": [],
      "name": "retCtr",
      "outputs": [
        {
          "internalType": "uint256",
          "name": "",
          "type": "uint256"
        }
      ],
      "stateMutability": "view",
      "type": "function"
    },
    {
      "inputs": [],
      "name": "rmsCtr",
      "outputs": [
        {
          "internalType": "uint256",
          "name": "",
          "type": "uint256"
        }
      ],
      "stateMutability": "view",
      "type": "function"
    },
    {
      "inputs": [
        {
          "internalType": "uint256",
          "name": "_medicineID",
          "type": "uint256"
        }
      ],
      "name": "showStage",
      "outputs": [
        {
          "internalType": "string",
          "name": "",
          "type": "string"
        }
      ],
      "stateMutability": "view",
      "type": "function"
    },
    {
      "inputs": [
        {
          "internalType": "uint256",
          "name": "_medicineID",
          "type": "uint256"
        }
      ],
      "name": "sold",
      "outputs": [],
      "stateMutability": "nonpayable",
      "type": "function"
    },
    {
      "inputs": [
        {
          "internalType": "uint256",
          "name": "_medicineID",
          "type": "uint256"
        },
        {
          "internalType": "uint256",
          "name": "_batchID",
          "type": "uint256"
        },
        {
          "internalType": "uint256",
          "name": "_quantity",
          "type": "uint256"
        },
        {
          "internalType": "address",
          "name": "_from",
          "type": "address"
        },
        {
          "internalType": "address",
          "name": "_to",
          "type": "address"
        },
        {
          "internalType": "string",
          "name": "_reference",
          "type": "string"
        }
      ],
      "name": "transferInventory",
      "outputs": [],
      "stateMutability": "nonpayable",
      "type": "function"
    }
  ],
  "bytecode": "0x6080604052600060015560006002556000600355600060045560006005556000600655600060075534801561003357600080fd5b50600080546001600160a01b03191633179055613724806100556000396000f3fe608060405234801561001057600080fd5b50600436106102485760003560e01c80638ab29bea1161013b578063b4a99a4e116100b8578063e101a2e01161007c578063e101a2e0146105c0578063e3c7036b146105e0578063e92b13ae146105f3578063eb1a06b5146105fc578063eef5cb401461062357600080fd5b8063b4a99a4e14610539578063bdf17e1f14610564578063bf77723014610584578063cc403069146105a4578063dd286398146105b757600080fd5b8063a1685bbf116100ff578063a1685bbf146104a2578063a48d335a146104c2578063a95f29d9146104d5578063aa101585146104de578063aaf175b81461052657600080fd5b80638ab29bea146104155780638f4183cc1461044057806394d867141461045357806397b75ad6146104665780639c03facb1461048f57600080fd5b80634def474a116101c95780636a42ba921161018d5780636a42ba92146103b05780636a992c9f146103d35780637e43d94d146103e6578063857ddb04146103ef57806386c182751461040257600080fd5b80634def474a1461032c57806353c5feed1461033f57806359bf286f1461035257806363b82eb71461036557806366a023201461039057600080fd5b80632b70b08d116102105780632b70b08d146102e15780632bdb2e6b146102f45780632ef83d0c146102fd5780633d753a1c14610310578063438e9c4d1461032357600080fd5b8063066bd25c1461024d57806323c55dfa1461027f5780632992825f146102965780632a4af440146102a95780632b0187ac146102be575b600080fd5b61026061025b366004612dae565b610636565b6040516102769a99989796959493929190612e0d565b60405180910390f35b61028860065481565b604051908152602001610276565b6102886102a4366004612f1d565b610799565b6102bc6102b7366004612fb8565b610a2d565b005b6102d16102cc366004612dae565b610b4d565b604051610276949392919061302c565b6102bc6102ef366004612fb8565b610c90565b61028860045481565b6102bc61030b366004613070565b610d8a565b6102bc61031e366004612dae565b610f72565b61028860035481565b6102bc61033a366004612dae565b611014565b6102bc61034d3660046130db565b6110b4565b6102d1610360366004612dae565b6113ba565b610288610373366004613155565b601060209081526000928352604080842090915290825290205481565b61028861039e366004612dae565b60126020526000908152604090205481565b6103c36103be366004612dae565b6113ec565b6040519015158152602001610276565b6102bc6103e1366004612fb8565b611469565b61028860055481565b6102bc6103fd366004612fb8565b61156c565b6102bc610410366004612dae565b61166f565b610288610423366004613181565b601460209081526000928352604080842090915290825290205481565b6102bc61044e3660046131b7565b611707565b6102bc6104613660046130db565b611926565b610479610474366004612dae565b611bf0565b6040516102769a99989796959493929190613245565b6102bc61049d366004612dae565b611cdc565b6104b56104b0366004612dae565b611db6565b60405161027691906132b8565b6102bc6104d0366004612dae565b611e48565b61028860015481565b6104f16104ec366004612dae565b611ee9565b604080519788526020880196909652948601939093526060850191909152608084015260a083015260c082015260e001610276565b6102bc610534366004613070565b611f89565b60005461054c906001600160a01b031681565b6040516001600160a01b039091168152602001610276565b610288610572366004612dae565b600f6020526000908152604090205481565b610288610592366004612dae565b60136020526000908152604090205481565b6102d16105b2366004612dae565b612301565b61028860025481565b6105d36105ce366004612dae565b612333565b60405161027691906132fc565b6102886105ee366004612dae565b6125d3565b61028860075481565b61060f61060a366004612dae565b61264b565b60405161027698979695949392919061330f565b6102d1610631366004612dae565b6127a0565b600d602052600090815260409020805460018201546002830180549293919261065e9061337b565b80601f016020809104026020016040519081016040528092919081815260200182805461068a9061337b565b80156106d75780601f106106ac576101008083540402835291602001916106d7565b820191906000526020600020905b8154815290600101906020018083116106ba57829003601f168201915b5050505050908060030180546106ec9061337b565b80601f01602080910402602001604051908101604052809291908181526020018280546107189061337b565b80156107655780601f1061073a57610100808354040283529160200191610765565b820191906000526020600020905b81548152906001019060200180831161074857829003601f168201915b5050506004840154600585015460068601546007870154600888015460099098015496979396929550909350919060ff168a565b600080546001600160a01b03163314806107b757506107b7336127d2565b6107dc5760405162461bcd60e51b81526004016107d3906133af565b60405180910390fd5b856000811180156107ef57506001548111155b61080b5760405162461bcd60e51b81526004016107d3906133d7565b60008651116108545760405162461bcd60e51b815260206004820152601560248201527410985d18da081b9d5b58995c881c995c5d5a5c9959605a1b60448201526064016107d3565b8215806108615750838310155b6108ad5760405162461bcd60e51b815260206004820152601b60248201527f457870697279206265666f7265206d616e75666163747572696e67000000000060448201526064016107d3565b600680549060006108bd8361341a565b91905055506040518061014001604052806006548152602001888152602001878152602001868152602001858152602001848152602001600081526020016000815260200142815260200160011515815250600d600060065481526020019081526020016000206000820151816000015560208201518160010155604082015181600201908161094d9190613479565b50606082015160038201906109629082613479565b506080820151600482015560a0820151600582015560c082015160068083019190915560e083015160078301556101008301516008830155610120909201516009909101805460ff19169115159190911790556000888152601160209081526040808320845481546001810183559185529290932090920155905490518891907f43a717c856186f9851bb44ec695f54cec2498390001f322d23c67eb394f6f2b290610a17908a908a908a908a904290613539565b60405180910390a3505060065495945050505050565b6000546001600160a01b03163314610a575760405162461bcd60e51b81526004016107d39061357c565b6001600160a01b038316610aad5760405162461bcd60e51b815260206004820152601b60248201527f496e76616c6964206469737472696275746f722061646472657373000000000060448201526064016107d3565b60048054906000610abd8361341a565b9091555050604080516080810182526001600160a01b0385811682526004546020808401828152848601888152606086018890526000938452600b90925294909120835181546001600160a01b03191693169290921782559251600182015591519091906002820190610b309082613479565b5060608201516003820190610b459082613479565b505050505050565b600b602052600090815260409020805460018201546002830180546001600160a01b03909316939192610b7f9061337b565b80601f0160208091040260200160405190810160405280929190818152602001828054610bab9061337b565b8015610bf85780601f10610bcd57610100808354040283529160200191610bf8565b820191906000526020600020905b815481529060010190602001808311610bdb57829003601f168201915b505050505090806003018054610c0d9061337b565b80601f0160208091040260200160405190810160405280929190818152602001828054610c399061337b565b8015610c865780601f10610c5b57610100808354040283529160200191610c86565b820191906000526020600020905b815481529060010190602001808311610c6957829003601f168201915b5050505050905084565b6000546001600160a01b03163314610cba5760405162461bcd60e51b81526004016107d39061357c565b6001600160a01b038316610d065760405162461bcd60e51b8152602060048201526013602482015272496e76616c696420524d53206164647265737360681b60448201526064016107d3565b60028054906000610d168361341a565b9091555050604080516080810182526001600160a01b038581168252600280546020808501828152858701898152606087018990526000938452600990925295909120845181546001600160a01b03191694169390931783559351600183015592519192909190820190610b309082613479565b6000546001600160a01b0316331480610da75750610da7336127d2565b610dc35760405162461bcd60e51b81526004016107d3906133af565b84600081118015610dd657506001548111155b610df25760405162461bcd60e51b81526004016107d3906133d7565b84600081118015610e0557506006548111155b8015610e2257506000818152600d602052604090206009015460ff165b610e3e5760405162461bcd60e51b81526004016107d3906135a0565b60008511610e5e5760405162461bcd60e51b81526004016107d3906135ca565b6001600160a01b038416610ea75760405162461bcd60e51b815260206004820152601060248201526f24b73b30b634b2103932b1b2b4bb32b960811b60448201526064016107d3565b6000868152600d60205260409020600101548714610ed75760405162461bcd60e51b81526004016107d3906135f8565b6000868152600d602052604081206006018054879290610ef890849061362f565b90915550506000878152600f602052604081208054879290610f1b90849061362f565b909155505060008681526010602090815260408083206001600160a01b038816845290915281208054879290610f5290849061362f565b90915550610f69905087876000888189828a612810565b50505050505050565b80600081118015610f8557506001548111155b610fa15760405162461bcd60e51b81526004016107d3906133d7565b6000610fac336129b6565b905060008111610fee5760405162461bcd60e51b815260206004820152600d60248201526c27b7363c903932ba30b4b632b960991b60448201526064016107d3565b600083815260086020526040902060060181905561100f8360036004612a18565b505050565b8060008111801561102757506001548111155b6110435760405162461bcd60e51b81526004016107d3906133d7565b600061104e33612b7b565b9050600081116110935760405162461bcd60e51b815260206004820152601060248201526f27b7363c903234b9ba3934b13aba37b960811b60448201526064016107d3565b600083815260086020526040902060050181905561100f8360026003612a18565b6000546001600160a01b03163314806110d157506110d1336127d2565b6110ed5760405162461bcd60e51b81526004016107d3906133af565b8560008111801561110057506001548111155b61111c5760405162461bcd60e51b81526004016107d3906133d7565b8560008111801561112f57506006548111155b801561114c57506000818152600d602052604090206009015460ff165b6111685760405162461bcd60e51b81526004016107d3906135a0565b600086116111885760405162461bcd60e51b81526004016107d3906135ca565b6001600160a01b0385166111cf5760405162461bcd60e51b815260206004820152600e60248201526d496e76616c696420736f7572636560901b60448201526064016107d3565b6001600160a01b03841661121b5760405162461bcd60e51b815260206004820152601360248201527224b73b30b634b2103232b9ba34b730ba34b7b760691b60448201526064016107d3565b6000878152600d6020526040902060010154881461124b5760405162461bcd60e51b81526004016107d3906135f8565b60008781526010602090815260408083206001600160a01b03891684529091529020548611156112b85760405162461bcd60e51b8152602060048201526018602482015277496e73756666696369656e742062617463682073746f636b60401b60448201526064016107d3565b6000888152600f60205260409020548611156113165760405162461bcd60e51b815260206004820152601b60248201527f496e73756666696369656e74206d65646963696e652073746f636b000000000060448201526064016107d3565b60008781526010602090815260408083206001600160a01b038916845290915281208054889290611348908490613642565b90915550506000878152600d60205260408120600701805488929061136e90849061362f565b90915550506000888152600f602052604081208054889290611391908490613642565b909155506113b09050888860018989896113aa83613655565b8a612810565b5050505050505050565b600c602052600090815260409020805460018201546002830180546001600160a01b03909316939192610b7f9061337b565b60008160008111801561140157506006548111155b801561141e57506000818152600d602052604090206009015460ff165b61143a5760405162461bcd60e51b81526004016107d3906135a0565b6000838152600d60205260408120600501549081900361145e576000925050611463565b421191505b50919050565b6000546001600160a01b031633146114935760405162461bcd60e51b81526004016107d39061357c565b6001600160a01b0383166114e95760405162461bcd60e51b815260206004820152601c60248201527f496e76616c6964206d616e75666163747572657220616464726573730000000060448201526064016107d3565b600380549060006114f98361341a565b9091555050604080516080810182526001600160a01b0385811682526003546020808401828152848601888152606086018890526000938452600a90925294909120835181546001600160a01b03191693169290921782559251600182015591519091906002820190610b309082613479565b6000546001600160a01b031633146115965760405162461bcd60e51b81526004016107d39061357c565b6001600160a01b0383166115ec5760405162461bcd60e51b815260206004820152601860248201527f496e76616c69642072657461696c65722061646472657373000000000000000060448201526064016107d3565b600580549060006115fc8361341a565b9091555050604080516080810182526001600160a01b0385811682526005546020808401828152848601888152606086018890526000938452600c90925294909120835181546001600160a01b03191693169290921782559251600182015591519091906002820190610b309082613479565b8060008111801561168257506001548111155b61169e5760405162461bcd60e51b81526004016107d3906133d7565b60006116a933612bd4565b9050600081116116e65760405162461bcd60e51b81526020600482015260086024820152674f6e6c7920524d5360c01b60448201526064016107d3565b600083815260086020526040812060030182905561100f9084906001612a18565b6000546001600160a01b031633146117315760405162461bcd60e51b81526004016107d39061357c565b600060025411801561174557506000600354115b801561175357506000600454115b801561176157506000600554115b6117a45760405162461bcd60e51b8152602060048201526014602482015273149959da5cdd195c881c9bdb195cc8199a5c9cdd60621b60448201526064016107d3565b600180549060006117b48361341a565b9190505550604051806101000160405280600154815260200183815260200182815260200160008152602001600081526020016000815260200160008152602001600060058111156118085761180861321b565b9052600180546000908152600860209081526040909120835181559083015190918201906118369082613479565b506040820151600282019061184b9082613479565b50606082015181600301556080820151816004015560a0820151816005015560c0820151816006015560e08201518160070160006101000a81548160ff0219169083600581111561189e5761189e61321b565b021790555050600180546000908152601260209081526040808320429081905584548452601383528184208190558454845260148352818420848052909252918290208190559154905133935090917facde6cbb36f9bf208ddd75fbc63817331f92fc659a33f10b06e1608dcdf1cdf29161191a918791613671565b60405180910390a35050565b6000546001600160a01b03163314806119435750611943336127d2565b61195f5760405162461bcd60e51b81526004016107d3906133af565b8560008111801561197257506001548111155b61198e5760405162461bcd60e51b81526004016107d3906133d7565b856000811180156119a157506006548111155b80156119be57506000818152600d602052604090206009015460ff165b6119da5760405162461bcd60e51b81526004016107d3906135a0565b600086116119fa5760405162461bcd60e51b81526004016107d3906135ca565b6001600160a01b03851615801590611a1a57506001600160a01b03841615155b611a665760405162461bcd60e51b815260206004820152601860248201527f496e76616c6964207472616e736665722061646472657373000000000000000060448201526064016107d3565b836001600160a01b0316856001600160a01b031603611ad25760405162461bcd60e51b815260206004820152602260248201527f536f7572636520616e642064657374696e6174696f6e206d757374206469666660448201526132b960f11b60648201526084016107d3565b6000878152600d60205260409020600101548814611b025760405162461bcd60e51b81526004016107d3906135f8565b60008781526010602090815260408083206001600160a01b0389168452909152902054861115611b6f5760405162461bcd60e51b8152602060048201526018602482015277496e73756666696369656e742062617463682073746f636b60401b60448201526064016107d3565b60008781526010602090815260408083206001600160a01b038916845290915281208054889290611ba1908490613642565b909155505060008781526010602090815260408083206001600160a01b038816845290915281208054889290611bd890849061362f565b909155506113b090508888600289898960008a612810565b600e6020526000908152604090208054600182015460028301546003840154600485015460058601546006870154600788015460088901805498999798969760ff9096169694956001600160a01b039485169593909416939192611c539061337b565b80601f0160208091040260200160405190810160405280929190818152602001828054611c7f9061337b565b8015611ccc5780601f10611ca157610100808354040283529160200191611ccc565b820191906000526020600020905b815481529060010190602001808311611caf57829003601f168201915b505050505090806009015490508a565b80600081118015611cef57506001548111155b611d0b5760405162461bcd60e51b81526004016107d3906133d7565b6000611d16336129b6565b905060008111611d585760405162461bcd60e51b815260206004820152600d60248201526c27b7363c903932ba30b4b632b960991b60448201526064016107d3565b6000838152600860205260409020600601548114611da95760405162461bcd60e51b815260206004820152600e60248201526d2bb937b733903932ba30b4b632b960911b60448201526064016107d3565b61100f8360046005612a18565b606081600081118015611dcb57506001548111155b611de75760405162461bcd60e51b81526004016107d3906133d7565b60008381526011602090815260409182902080548351818402810184019094528084529091830182828015611e3b57602002820191906000526020600020905b815481526020019060010190808311611e27575b5050505050915050919050565b80600081118015611e5b57506001548111155b611e775760405162461bcd60e51b81526004016107d3906133d7565b6000611e8233612c2d565b905060008111611ec85760405162461bcd60e51b815260206004820152601160248201527027b7363c9036b0b73ab330b1ba3ab932b960791b60448201526064016107d3565b600083815260086020526040902060040181905561100f8360016002612a18565b600080600080600080600087600081118015611f0757506001548111155b611f235760405162461bcd60e51b81526004016107d3906133d7565b5050506000868152601460209081526040808320838052825280832054600184528184205460028552828520546003865283862054600487528487205460058852858820549d885260139096529390952054919b909a9499509197509195509193509150565b6000546001600160a01b03163314611fb35760405162461bcd60e51b81526004016107d39061357c565b84600081118015611fc657506001548111155b611fe25760405162461bcd60e51b81526004016107d3906133d7565b84600081118015611ff557506006548111155b801561201257506000818152600d602052604090206009015460ff165b61202e5760405162461bcd60e51b81526004016107d3906135a0565b846000036120755760405162461bcd60e51b815260206004820152601460248201527344656c74612063616e6e6f74206265207a65726f60601b60448201526064016107d3565b6001600160a01b0384166120bc5760405162461bcd60e51b815260206004820152600e60248201526d24b73b30b634b2103437b63232b960911b60448201526064016107d3565b6000868152600d602052604090206001015487146120ec5760405162461bcd60e51b81526004016107d3906135f8565b60008513156121905760008681526010602090815260408083206001600160a01b038816845290915281208054879283929161212990849061362f565b90915550506000878152600d60205260408120600601805483929061214f90849061362f565b90915550506000888152600f60205260408120805483929061217290849061362f565b9091555061218a9050888860038460008a8c8b612810565b50610f69565b600061219b86613655565b60008881526010602090815260408083206001600160a01b038a1684529091529020549091508111156122105760405162461bcd60e51b815260206004820152601960248201527f496e73756666696369656e7420686f6c6465722073746f636b0000000000000060448201526064016107d3565b6000888152600f602052604090205481111561226e5760405162461bcd60e51b815260206004820152601b60248201527f496e73756666696369656e74206d65646963696e652073746f636b000000000060448201526064016107d3565b60008781526010602090815260408083206001600160a01b0389168452909152812080548392906122a0908490613642565b90915550506000878152600d6020526040812060070180548392906122c690849061362f565b90915550506000888152600f6020526040812080548392906122e9908490613642565b909155506113b0905088886003848960008c8b612810565b600a602052600090815260409020805460018201546002830180546001600160a01b03909316939192610b7f9061337b565b60608160008111801561234857506001548111155b6123645760405162461bcd60e51b81526004016107d3906133d7565b60008381526008602052604081206007015460ff16600581111561238a5761238a61321b565b036123bf576040518060400160405280601081526020016f1359591a58da5b994813dc99195c995960821b8152509150611463565b600160008481526008602052604090206007015460ff1660058111156123e7576123e761321b565b03612429576040518060400160405280601981526020017f526177204d6174657269616c20537570706c79205374616765000000000000008152509150611463565b600260008481526008602052604090206007015460ff1660058111156124515761245161321b565b0361248957604051806040016040528060138152602001724d616e75666163747572696e6720537461676560681b8152509150611463565b600360008481526008602052604090206007015460ff1660058111156124b1576124b161321b565b036124e85760405180604001604052806012815260200171446973747269627574696f6e20537461676560701b8152509150611463565b600460008481526008602052604090206007015460ff1660058111156125105761251061321b565b03612541576040518060400160405280600c81526020016b52657461696c20537461676560a01b8152509150611463565b600560008481526008602052604090206007015460ff1660058111156125695761256961321b565b0361259b576040518060400160405280600d81526020016c1359591a58da5b994814dbdb19609a1b8152509150611463565b60405162461bcd60e51b815260206004820152600d60248201526c556e6b6e6f776e20737461676560981b60448201526064016107d3565b6000816000811180156125e857506006548111155b801561260557506000818152600d602052604090206009015460ff165b6126215760405162461bcd60e51b81526004016107d3906135a0565b6000838152600d6020526040902060078101546006909101546126449190613642565b9392505050565b6008602052600090815260409020805460018201805491929161266d9061337b565b80601f01602080910402602001604051908101604052809291908181526020018280546126999061337b565b80156126e65780601f106126bb576101008083540402835291602001916126e6565b820191906000526020600020905b8154815290600101906020018083116126c957829003601f168201915b5050505050908060020180546126fb9061337b565b80601f01602080910402602001604051908101604052809291908181526020018280546127279061337b565b80156127745780601f1061274957610100808354040283529160200191612774565b820191906000526020600020905b81548152906001019060200180831161275757829003601f168201915b505050600384015460048501546005860154600687015460079097015495969295919450925060ff1688565b6009602052600090815260409020805460018201546002830180546001600160a01b03909316939192610b7f9061337b565b60006127dd82612c86565b806127ec57506127ec82612cd0565b806127fb57506127fb82612d1a565b8061280a575061280a82612d64565b92915050565b600780549060006128208361341a565b919050555060405180610140016040528060075481526020018981526020018881526020018760038111156128575761285761321b565b8152602001868152602001856001600160a01b03168152602001846001600160a01b0316815260200183815260200182815260200142815250600e6000600754815260200190815260200160002060008201518160000155602082015181600101556040820151816002015560608201518160030160006101000a81548160ff021916908360038111156128ed576128ed61321b565b02179055506080820151600482015560a08201516005820180546001600160a01b039283166001600160a01b03199182161790915560c084015160068401805491909316911617905560e0820151600782015561010082015160088201906129559082613479565b50610120820151816009015590505086886007547f293ac978ebaa45f33b4eeb01496f1a82c43fbf7656f0394287a6e8404e24a5248989878a8a89426040516129a49796959493929190613693565b60405180910390a45050505050505050565b600060015b6005548111612a0f576000818152600c60205260409020546001600160a01b038085169116036129fd576000908152600c602052604090206001015492915050565b80612a078161341a565b9150506129bb565b50600092915050565b816005811115612a2a57612a2a61321b565b60008481526008602052604090206007015460ff166005811115612a5057612a5061321b565b14612a8d5760405162461bcd60e51b815260206004820152600d60248201526c496e76616c696420737461676560981b60448201526064016107d3565b6000838152600860205260409020600701805482919060ff19166001836005811115612abb57612abb61321b565b021790555060008381526014602052604081204291836005811115612ae257612ae261321b565b60ff16815260208082019290925260409081016000908120939093558583526013909152902042905533837fef4c2f19cd28366c77de667f9b90f25b8215436ce2e3cae12477ff0d1355c38d846005811115612b4057612b4061321b565b846005811115612b5257612b5261321b565b6040805160ff9384168152929091166020830152429082015260600160405180910390a3505050565b600060015b6004548111612a0f576000818152600b60205260409020546001600160a01b03808516911603612bc2576000908152600b602052604090206001015492915050565b80612bcc8161341a565b915050612b80565b600060015b6002548111612a0f576000818152600960205260409020546001600160a01b03808516911603612c1b5760009081526009602052604090206001015492915050565b80612c258161341a565b915050612bd9565b600060015b6003548111612a0f576000818152600a60205260409020546001600160a01b03808516911603612c74576000908152600a602052604090206001015492915050565b80612c7e8161341a565b915050612c32565b600060015b6002548111612a0f576000818152600960205260409020546001600160a01b03808516911603612cbe5750600192915050565b80612cc88161341a565b915050612c8b565b600060015b6003548111612a0f576000818152600a60205260409020546001600160a01b03808516911603612d085750600192915050565b80612d128161341a565b915050612cd5565b600060015b6004548111612a0f576000818152600b60205260409020546001600160a01b03808516911603612d525750600192915050565b80612d5c8161341a565b915050612d1f565b600060015b6005548111612a0f576000818152600c60205260409020546001600160a01b03808516911603612d9c5750600192915050565b80612da68161341a565b915050612d69565b600060208284031215612dc057600080fd5b5035919050565b6000815180845260005b81811015612ded57602081850181015186830182015201612dd1565b506000602082860101526020601f19601f83011685010191505092915050565b60006101408c83528b6020840152806040840152612e2d8184018c612dc7565b90508281036060840152612e41818b612dc7565b6080840199909952505060a081019590955260c085019390935260e0840191909152610100830152151561012090910152949350505050565b634e487b7160e01b600052604160045260246000fd5b600082601f830112612ea157600080fd5b813567ffffffffffffffff80821115612ebc57612ebc612e7a565b604051601f8301601f19908116603f01168101908282118183101715612ee457612ee4612e7a565b81604052838152866020858801011115612efd57600080fd5b836020870160208301376000602085830101528094505050505092915050565b600080600080600060a08688031215612f3557600080fd5b85359450602086013567ffffffffffffffff80821115612f5457600080fd5b612f6089838a01612e90565b95506040880135915080821115612f7657600080fd5b50612f8388828901612e90565b9598949750949560608101359550608001359392505050565b80356001600160a01b0381168114612fb357600080fd5b919050565b600080600060608486031215612fcd57600080fd5b612fd684612f9c565b9250602084013567ffffffffffffffff80821115612ff357600080fd5b612fff87838801612e90565b9350604086013591508082111561301557600080fd5b5061302286828701612e90565b9150509250925092565b60018060a01b03851681528360208201526080604082015260006130536080830185612dc7565b82810360608401526130658185612dc7565b979650505050505050565b600080600080600060a0868803121561308857600080fd5b8535945060208601359350604086013592506130a660608701612f9c565b9150608086013567ffffffffffffffff8111156130c257600080fd5b6130ce88828901612e90565b9150509295509295909350565b60008060008060008060c087890312156130f457600080fd5b86359550602087013594506040870135935061311260608801612f9c565b925061312060808801612f9c565b915060a087013567ffffffffffffffff81111561313c57600080fd5b61314889828a01612e90565b9150509295509295509295565b6000806040838503121561316857600080fd5b8235915061317860208401612f9c565b90509250929050565b6000806040838503121561319457600080fd5b82359150602083013560ff811681146131ac57600080fd5b809150509250929050565b600080604083850312156131ca57600080fd5b823567ffffffffffffffff808211156131e257600080fd5b6131ee86838701612e90565b9350602085013591508082111561320457600080fd5b5061321185828601612e90565b9150509250929050565b634e487b7160e01b600052602160045260246000fd5b600481106132415761324161321b565b9052565b60006101408c83528b60208401528a6040840152613266606084018b613231565b608083018990526001600160a01b0388811660a0850152871660c084015260e08301869052610100830181905261329f81840186612dc7565b915050826101208301529b9a5050505050505050505050565b6020808252825182820181905260009190848201906040850190845b818110156132f0578351835292840192918401916001016132d4565b50909695505050505050565b6020815260006126446020830184612dc7565b60006101008a83528060208401526133298184018b612dc7565b9050828103604084015261333d818a612dc7565b9150508660608301528560808301528460a08301528360c0830152600683106133685761336861321b565b8260e08301529998505050505050505050565b600181811c9082168061338f57607f821691505b60208210810361146357634e487b7160e01b600052602260045260246000fd5b6020808252600e908201526d139bdd08185d5d1a1bdc9a5e995960921b604082015260600190565b602080825260139082015272125b9d985b1a59081b59591a58da5b99481a59606a1b604082015260600190565b634e487b7160e01b600052601160045260246000fd5b60006001820161342c5761342c613404565b5060010190565b601f82111561100f57600081815260208120601f850160051c8101602086101561345a5750805b601f850160051c820191505b81811015610b4557828155600101613466565b815167ffffffffffffffff81111561349357613493612e7a565b6134a7816134a1845461337b565b84613433565b602080601f8311600181146134dc57600084156134c45750858301515b600019600386901b1c1916600185901b178555610b45565b600085815260208120601f198616915b8281101561350b578886015182559484019460019091019084016134ec565b50858210156135295787850151600019600388901b60f8161c191681555b5050505050600190811b01905550565b60a08152600061354c60a0830188612dc7565b828103602084015261355e8188612dc7565b60408401969096525050606081019290925260809091015292915050565b6020808252600a908201526927b7363c9037bbb732b960b11b604082015260600190565b60208082526010908201526f125b9d985b1a590818985d18da081a5960821b604082015260600190565b60208082526014908201527305175616e74697479206d757374206265203e20360641b604082015260600190565b60208082526017908201527f42617463682d6d65646963696e65206d69736d61746368000000000000000000604082015260600190565b8082018082111561280a5761280a613404565b8181038181111561280a5761280a613404565b6000600160ff1b820161366a5761366a613404565b5060000390565b6040815260006136846040830185612dc7565b90508260208301529392505050565b61369d8189613231565b60208101879052604081018690526001600160a01b0385811660608301528416608082015260e060a082018190526000906136da90830185612dc7565b90508260c08301529897505050505050505056fea2646970667358221220fbcece39bf1f4a12514fc5f015d4b9086008ea55f8102069c481c019b71b754864736f6c63430008130033",
  "linkReferences": {},
  "deployedLinkReferences": {}
}