{
  "_format": "hh-sol-artifact-1",
  "contractName": "SupplyChain",
  "sourceName": "contracts/SupplyChain.sol",
  "abi": [
    {
      "inputs": [],
      "stateMutability": "nonpayable",
      "type": "constructor"
    },
    {
      "anonymous": false,
      "inputs": [
        {
          "indexed": true,
          "internalType": "uint256",
          "name": "batchId",
          "type": "uint256"
        },
        {
          "indexed": true,
          "internalType": "uint256",
          "name": "productId",
          "type": "uint256"
        },
        {
          "indexed": false,
          "internalType": "string",
          "name": "batchNumber",
          "type": "string"
        },
        {
          "indexed": false,
          "internalType": "string",
          "name": "supplierBatchRef",
          "type": "string"
        },
        {
          "indexed": false,
          "internalType": "uint256",
          "name": "mfgDate",
          "type": "uint256"
        },
        {
          "indexed": false,
          "internalType": "uint256",
          "name": "expiryDate",
          "type": "uint256"
        },
        {
          "indexed": false,
          "internalType": "uint256",
          "name": "createdAt",
          "type": "uint256"
        }
      ],
      "name": "BatchCreated",
      "type": "event"
    },
    {
      "anonymous": false,
      "inputs": [
        {
          "indexed": true,
          "internalType": "uint256",
          "name": "txId",
          "type": "uint256"
        },
        {
          "indexed": true,
          "internalType": "uint256",
          "name": "productId",
          "type": "uint256"
        },
        {
          "indexed": true,
          "internalType": "uint256",
          "name": "batchId",
          "type": "uint256"
        },
        {
          "indexed": false,
          "internalType": "enum SupplyChain.InventoryAction",
          "name": "action",
          "type": "uint8"
        },
        {
          "indexed": false,
          "internalType": "uint256",
          "name": "quantity",
          "type": "uint256"
        },
        {
          "indexed": false,
          "internalType": "int256",
          "name": "signedDelta",
          "type": "int256"
        },
        {
          "indexed": false,
          "internalType": "address",
          "name": "fromAddr",
          "type": "address"
        },
        {
          "indexed": false,
          "internalType": "address",
          "name": "toAddr",
          "type": "address"
        },
        {
          "indexed": false,
          "internalType": "string",
          "name": "refNote",
          "type": "string"
        },
        {
          "indexed": false,
          "internalType": "uint256",
          "name": "timestamp",
          "type": "uint256"
        }
      ],
      "name": "InventoryChanged",
      "type": "event"
    },
    {
      "anonymous": false,
      "inputs": [
        {
          "indexed": true,
          "internalType": "uint256",
          "name": "productId",
          "type": "uint256"
        },
        {
          "indexed": false,
          "internalType": "string",
          "name": "name",
          "type": "string"
        },
        {
          "indexed": false,
          "internalType": "uint256",
          "name": "timestamp",
          "type": "uint256"
        },
        {
          "indexed": true,
          "internalType": "address",
          "name": "actor",
          "type": "address"
        }
      ],
      "name": "ProductOrdered",
      "type": "event"
    },
    {
      "anonymous": false,
      "inputs": [
        {
          "indexed": true,
          "internalType": "uint256",
          "name": "productId",
          "type": "uint256"
        },
        {
          "indexed": false,
          "internalType": "uint8",
          "name": "fromStage",
          "type": "uint8"
        },
        {
          "indexed": false,
          "internalType": "uint8",
          "name": "toStage",
          "type": "uint8"
        },
        {
          "indexed": false,
          "internalType": "uint256",
          "name": "timestamp",
          "type": "uint256"
        },
        {
          "indexed": true,
          "internalType": "address",
          "name": "actor",
          "type": "address"
        }
      ],
      "name": "ProductStageUpdated",
      "type": "event"
    },
    {
      "inputs": [
        {
          "internalType": "uint256",
          "name": "",
          "type": "uint256"
        }
      ],
      "name": "BatchStock",
      "outputs": [
        {
          "internalType": "uint256",
          "name": "id",
          "type": "uint256"
        },
        {
          "internalType": "uint256",
          "name": "productId",
          "type": "uint256"
        },
        {
          "internalType": "string",
          "name": "batchNumber",
          "type": "string"
        },
        {
          "internalType": "string",
          "name": "supplierBatchRef",
          "type": "string"
        },
        {
          "internalType": "uint256",
          "name": "mfgDate",
          "type": "uint256"
        },
        {
          "internalType": "uint256",
          "name": "expiryDate",
          "type": "uint256"
        },
        {
          "internalType": "uint256",
          "name": "totalReceived",
          "type": "uint256"
        },
        {
          "internalType": "uint256",
          "name": "totalIssued",
          "type": "uint256"
        },
        {
          "internalType": "uint256",
          "name": "createdAt",
          "type": "uint256"
        },
        {
          "internalType": "bool",
          "name": "exists",
          "type": "bool"
        }
      ],
      "stateMutability": "view",
      "type": "function"
    },
    {
      "inputs": [
        {
          "internalType": "uint256",
          "name": "",
          "type": "uint256"
        }
      ],
      "name": "InventoryTx",
      "outputs": [
        {
          "internalType": "uint256",
          "name": "id",
          "type": "uint256"
        },
        {
          "internalType": "uint256",
          "name": "productId",
          "type": "uint256"
        },
        {
          "internalType": "uint256",
          "name": "batchId",
          "type": "uint256"
        },
        {
          "internalType": "enum SupplyChain.InventoryAction",
          "name": "action",
          "type": "uint8"
        },
        {
          "internalType": "uint256",
          "name": "quantity",
          "type": "uint256"
        },
        {
          "internalType": "address",
          "name": "fromAddr",
          "type": "address"
        },
        {
          "internalType": "address",
          "name": "toAddr",
          "type": "address"
        },
        {
          "internalType": "int256",
          "name": "signedDelta",
          "type": "int256"
        },
        {
          "internalType": "string",
          "name": "refNote",
          "type": "string"
        },
        {
          "internalType": "uint256",
          "name": "timestamp",
          "type": "uint256"
        }
      ],
      "stateMutability": "view",
      "type": "function"
    },
    {
      "inputs": [
        {
          "internalType": "uint256",
          "name": "",
          "type": "uint256"
        }
      ],
      "name": "MAN",
      "outputs": [
        {
          "internalType": "address",
          "name": "addr",
          "type": "address"
        },
        {
          "internalType": "uint256",
          "name": "id",
          "type": "uint256"
        },
        {
          "internalType": "string",
          "name": "name",
          "type": "string"
        },
        {
          "internalType": "string",
          "name": "place",
          "type": "string"
        }
      ],
      "stateMutability": "view",
      "type": "function"
    },
    {
      "inputs": [
        {
          "internalType": "uint256",
          "name": "_productID",
          "type": "uint256"
        }
      ],
      "name": "Manufacturing",
      "outputs": [],
      "stateMutability": "nonpayable",
      "type": "function"
    },
    {
      "inputs": [],
      "name": "Owner",
      "outputs": [
        {
          "internalType": "address",
          "name": "",
          "type": "address"
        }
      ],
      "stateMutability": "view",
      "type": "function"
    },
    {
      "inputs": [
        {
          "internalType": "uint256",
          "name": "",
          "type": "uint256"
        }
      ],
      "name": "ProductStock",
      "outputs": [
        {
          "internalType": "uint256",
          "name": "id",
          "type": "uint256"
        },
        {
          "internalType": "string",
          "name": "name",
          "type": "string"
        },
        {
          "internalType": "string",
          "name": "description",
          "type": "string"
        },
        {
          "internalType": "uint256",
          "name": "MANid",
          "type": "uint256"
        },
        {
          "internalType": "uint256",
          "name": "WARid",
          "type": "uint256"
        },
        {
          "internalType": "uint256",
          "name": "RETid",
          "type": "uint256"
        },
        {
          "internalType": "enum SupplyChain.STAGE",
          "name": "stage",
          "type": "uint8"
        }
      ],
      "stateMutability": "view",
      "type": "function"
    },
    {
      "inputs": [
        {
          "internalType": "uint256",
          "name": "",
          "type": "uint256"
        }
      ],
      "name": "RET",
      "outputs": [
        {
          "internalType": "address",
          "name": "addr",
          "type": "address"
        },
        {
          "internalType": "uint256",
          "name": "id",
          "type": "uint256"
        },
        {
          "internalType": "string",
          "name": "name",
          "type": "string"
        },
        {
          "internalType": "string",
          "name": "place",
          "type": "string"
        }
      ],
      "stateMutability": "view",
      "type": "function"
    },
    {
      "inputs": [
        {
          "internalType": "uint256",
          "name": "_productID",
          "type": "uint256"
        }
      ],
      "name": "Retail",
      "outputs": [],
      "stateMutability": "nonpayable",
      "type": "function"
    },
    {
      "inputs": [
        {
          "internalType": "uint256",
          "name": "",
          "type": "uint256"
        }
      ],
      "name": "WAR",
      "outputs": [
        {
          "internalType": "address",
          "name": "addr",
          "type": "address"
        },
        {
          "internalType": "uint256",
          "name": "id",
          "type": "uint256"
        },
        {
          "internalType": "string",
          "name": "name",
          "type": "string"
        },
        {
          "internalType": "string",
          "name": "place",
          "type": "string"
        }
      ],
      "stateMutability": "view",
      "type": "function"
    },
    {
      "inputs": [
        {
          "internalType": "uint256",
          "name": "_productID",
          "type": "uint256"
        }
      ],
      "name": "Warehouse",
      "outputs": [],
      "stateMutability": "nonpayable",
      "type": "function"
    },
    {
      "inputs": [
        {
          "internalType": "address",
          "name": "_address",
          "type": "address"
        },
        {
          "internalType": "string",
          "name": "_name",
          "type": "string"
        },
        {
          "internalType": "string",
          "name": "_place",
          "type": "string"
        }
      ],
      "name": "addManufacturer",
      "outputs": [],
      "stateMutability": "nonpayable",
      "type": "function"
    },
    {
      "inputs": [
        {
          "internalType": "string",
          "name": "_name",
          "type": "string"
        },
        {
          "internalType": "string",
          "name": "_description",
          "type": "string"
        }
      ],
      "name": "addProduct",
      "outputs": [],
      "stateMutability": "nonpayable",
      "type": "function"
    },
    {
      "inputs": [
        {
          "internalType": "address",
          "name": "_address",
          "type": "address"
        },
        {
          "internalType": "string",
          "name": "_name",
          "type": "string"
        },
        {
          "internalType": "string",
          "name": "_place",
          "type": "string"
        }
      ],
      "name": "addRetailer",
      "outputs": [],
      "stateMutability": "nonpayable",
      "type": "function"
    },
    {
      "inputs": [
        {
          "internalType": "address",
          "name": "_address",
          "type": "address"
        },
        {
          "internalType": "string",
          "name": "_name",
          "type": "string"
        },
        {
          "internalType": "string",
          "name": "_place",
          "type": "string"
        }
      ],
      "name": "addWarehouse",
      "outputs": [],
      "stateMutability": "nonpayable",
      "type": "function"
    },
    {
      "inputs": [
        {
          "internalType": "uint256",
          "name": "_productID",
          "type": "uint256"
        },
        {
          "internalType": "uint256",
          "name": "_batchID",
          "type": "uint256"
        },
        {
          "internalType": "int256",
          "name": "_quantityDelta",
          "type": "int256"
        },
        {
          "internalType": "address",
          "name": "_holder",
          "type": "address"
        },
        {
          "internalType": "string",
          "name": "_reference",
          "type": "string"
        }
      ],
      "name": "adjustInventory",
      "outputs": [],
      "stateMutability": "nonpayable",
      "type": "function"
    },
    {
      "inputs": [
        {
          "internalType": "uint256",
          "name": "",
          "type": "uint256"
        },
        {
          "internalType": "address",
          "name": "",
          "type": "address"
        }
      ],
      "name": "batchBalanceByHolder",
      "outputs": [
        {
          "internalType": "uint256",
          "name": "",
          "type": "uint256"
        }
      ],
      "stateMutability": "view",
      "type": "function"
    },
    {
      "inputs": [],
      "name": "batchCtr",
      "outputs": [
        {
          "internalType": "uint256",
          "name": "",
          "type": "uint256"
        }
      ],
      "stateMutability": "view",
      "type": "function"
    },
    {
      "inputs": [
        {
          "internalType": "uint256",
          "name": "_productID",
          "type": "uint256"
        },
        {
          "internalType": "string",
          "name": "_batchNumber",
          "type": "string"
        },
        {
          "internalType": "string",
          "name": "_supplierBatchRef",
          "type": "string"
        },
        {
          "internalType": "uint256",
          "name": "_mfgDate",
          "type": "uint256"
        },
        {
          "internalType": "uint256",
          "name": "_expiryDate",
          "type": "uint256"
        }
      ],
      "name": "createBatch",
      "outputs": [
        {
          "internalType": "uint256",
          "name": "",
          "type": "uint256"
        }
      ],
      "stateMutability": "nonpayable",
      "type": "function"
    },
    {
      "inputs": [
        {
          "internalType": "uint256",
          "name": "_batchID",
          "type": "uint256"
        }
      ],
      "name": "getBatchRemainingQty",
      "outputs": [
        {
          "internalType": "uint256",
          "name": "",
          "type": "uint256"
        }
      ],
      "stateMutability": "view",
      "type": "function"
    },
    {
      "inputs": [
        {
          "internalType": "uint256",
          "name": "_productID",
          "type": "uint256"
        }
      ],
      "name": "getProductBatchIds",
      "outputs": [
        {
          "internalType": "uint256[]",
          "name": "",
          "type": "uint256[]"
        }
      ],
      "stateMutability": "view",
      "type": "function"
    },
    {
      "inputs": [
        {
          "internalType": "uint256",
          "name": "_productID",
          "type": "uint256"
        }
      ],
      "name": "getProductTimestamps",
      "outputs": [
        {
          "internalType": "uint256",
          "name": "orderedAt",
          "type": "uint256"
        },
        {
          "internalType": "uint256",
          "name": "manufactureAt",
          "type": "uint256"
        },
        {
          "internalType": "uint256",
          "name": "warehouseAt",
          "type": "uint256"
        },
        {
          "internalType": "uint256",
          "name": "retailAt",
          "type": "uint256"
        },
        {
          "internalType": "uint256",
          "name": "soldAt",
          "type": "uint256"
        },
        {
          "internalType": "uint256",
          "name": "updatedAt",
          "type": "uint256"
        }
      ],
      "stateMutability": "view",
      "type": "function"
    },
    {
      "inputs": [],
      "name": "inventoryTxCtr",
      "outputs": [
        {
          "internalType": "uint256",
          "name": "",
          "type": "uint256"
        }
      ],
      "stateMutability": "view",
      "type": "function"
    },
    {
      "inputs": [
        {
          "internalType": "uint256",
          "name": "_batchID",
          "type": "uint256"
        }
      ],
      "name": "isBatchExpired",
      "outputs": [
        {
          "internalType": "bool",
          "name": "",
          "type": "bool"
        }
      ],
      "stateMutability": "view",
      "type": "function"
    },
    {
      "inputs": [
        {
          "internalType": "uint256",
          "name": "_productID",
          "type": "uint256"
        },
        {
          "internalType": "uint256",
          "name": "_batchID",
          "type": "uint256"
        },
        {
          "internalType": "uint256",
          "name": "_quantity",
          "type": "uint256"
        },
        {
          "internalType": "address",
          "name": "_from",
          "type": "address"
        },
        {
          "internalType": "address",
          "name": "_to",
          "type": "address"
        },
        {
          "internalType": "string",
          "name": "_reference",
          "type": "string"
        }
      ],
      "name": "issueInventory",
      "outputs": [],
      "stateMutability": "nonpayable",
      "type": "function"
    },
    {
      "inputs": [],
      "name": "manCtr",
      "outputs": [
        {
          "internalType": "uint256",
          "name": "",
          "type": "uint256"
        }
      ],
      "stateMutability": "view",
      "type": "function"
    },
    {
      "inputs": [
        {
          "internalType": "uint256",
          "name": "",
          "type": "uint256"
        }
      ],
      "name": "productCreatedAt",
      "outputs": [
        {
          "internalType": "uint256",
          "name": "",
          "type": "uint256"
        }
      ],
      "stateMutability": "view",
      "type": "function"
    },
    {
      "inputs": [],
      "name": "productCtr",
      "outputs": [
        {
          "internalType": "uint256",
          "name": "",
          "type": "uint256"
        }
      ],
      "stateMutability": "view",
      "type": "function"
    },
    {
      "inputs": [
        {
          "internalType": "uint256",
          "name": "",
          "type": "uint256"
        }
      ],
      "name": "productInventory",
      "outputs": [
        {
          "internalType": "uint256",
          "name": "",
          "type": "uint256"
        }
      ],
      "stateMutability": "view",
      "type": "function"
    },
    {
      "inputs": [
        {
          "internalType": "uint256",
          "name": "",
          "type": "uint256"
        }
      ],
      "name": "productLastUpdatedAt",
      "outputs": [
        {
          "internalType": "uint256",
          "name": "",
          "type": "uint256"
        }
      ],
      "stateMutability": "view",
      "type": "function"
    },
    {
      "inputs": [
        {
          "internalType": "uint256",
          "name": "",
          "type": "uint256"
        },
        {
          "internalType": "uint8",
          "name": "",
          "type": "uint8"
        }
      ],
      "name": "productStageAt",
      "outputs": [
        {
          "internalType": "uint256",
          "name": "",
          "type": "uint256"
        }
      ],
      "stateMutability": "view",
      "type": "function"
    },
    {
      "inputs": [
        {
          "internalType": "uint256",
          "name": "_productID",
          "type": "uint256"
        },
        {
          "internalType": "uint256",
          "name": "_batchID",
          "type": "uint256"
        },
        {
          "internalType": "uint256",
          "name": "_quantity",
          "type": "uint256"
        },
        {
          "internalType": "address",
          "name": "_to",
          "type": "address"
        },
        {
          "internalType": "string",
          "name": "_reference",
          "type": "string"
        }
      ],
      "name": "receiveInventory",
      "outputs": [],
      "stateMutability": "nonpayable",
      "type": "function"
    },
    {
      "inputs": [],
      "name": "retCtr",
      "outputs": [
        {
          "internalType": "uint256",
          "name": "",
          "type": "uint256"
        }
      ],
      "stateMutability": "view",
      "type": "function"
    },
    {
      "inputs": [
        {
          "internalType": "uint256",
          "name": "_productID",
          "type": "uint256"
        }
      ],
      "name": "showStage",
      "outputs": [
        {
          "internalType": "string",
          "name": "",
          "type": "string"
        }
      ],
      "stateMutability": "view",
      "type": "function"
    },
    {
      "inputs": [
        {
          "internalType": "uint256",
          "name": "_productID",
          "type": "uint256"
        }
      ],
      "name": "sold",
      "outputs": [],
      "stateMutability": "nonpayable",
      "type": "function"
    },
    {
      "inputs": [
        {
          "internalType": "uint256",
          "name": "_productID",
          "type": "uint256"
        },
        {
          "internalType": "uint256",
          "name": "_batchID",
          "type": "uint256"
        },
        {
          "internalType": "uint256",
          "name": "_quantity",
          "type": "uint256"
        },
        {
          "internalType": "address",
          "name": "_from",
          "type": "address"
        },
        {
          "internalType": "address",
          "name": "_to",
          "type": "address"
        },
        {
          "internalType": "string",
          "name": "_reference",
          "type": "string"
        }
      ],
      "name": "transferInventory",
      "outputs": [],
      "stateMutability": "nonpayable",
      "type": "function"
    },
    {
      "inputs": [],
      "name": "warCtr",
      "outputs": [
        {
          "internalType": "uint256",
          "name": "",
          "type": "uint256"
        }
      ],
      "stateMutability": "view",
      "type": "function"
    }
  ],
  "bytecode": "0x608060405260006001556000600255600060035560006004556000600555600060065534801561002e57600080fd5b50600080546001600160a01b03191633179055613381806100506000396000f3fe608060405234801561001057600080fd5b506004361061021c5760003560e01c8063857ddb0411610125578063b4a99a4e116100ad578063de1055261161007c578063de10552614610550578063e101a2e014610563578063e3c7036b14610583578063e92b13ae14610596578063f06fdd4c1461059f57600080fd5b8063b4a99a4e146104ec578063ca2efb5514610517578063cc4030691461052a578063d776122d1461053d57600080fd5b80639b740b2f116100f45780639b740b2f1461048a5780639c03facb146104aa578063a48d335a146104bd578063aaea34aa146104d0578063aaf175b8146104d957600080fd5b8063857ddb04146104325780638afc54d91461044557806394d867141461044e57806397b75ad61461046157600080fd5b806353c5feed116101a85780636a42ba92116101775780636a42ba92146103b35780636a992c9f146103d657806379d4e21a146103e95780637e43d94d146104095780638217ad6f1461041257600080fd5b806353c5feed1461032c5780635573d8b21461033f57806359bf286f1461036557806363b82eb71461038857600080fd5b80632ef83d0c116101ef5780632ef83d0c146102925780633a05c8d8146102a55780633d753a1c146102e5578063438a0a48146102f8578063438e9c4d1461032357600080fd5b8063066bd25c1461022157806311b1851c1461025357806323c55dfa146102685780632992825f1461027f575b600080fd5b61023461022f366004612a1d565b6105bf565b60405161024a9a99989796959493929190612a7c565b60405180910390f35b610266610261366004612a1d565b610722565b005b61027160055481565b60405190815260200161024a565b61027161028d366004612b8c565b6107ce565b6102666102a0366004612c27565b610a59565b6102b86102b3366004612a1d565b610c41565b604080519687526020870195909552938501929092526060840152608083015260a082015260c00161024a565b6102666102f3366004612a1d565b610cd3565b610271610306366004612c92565b601260209081526000928352604080842090915290825290205481565b61027160025481565b61026661033a366004612cc8565b610d70565b61035261034d366004612a1d565b611076565b60405161024a9796959493929190612d58565b610378610373366004612a1d565b6111c5565b60405161024a9493929190612dba565b610271610396366004612dfe565b600e60209081526000928352604080842090915290825290205481565b6103c66103c1366004612a1d565b611308565b604051901515815260200161024a565b6102666103e4366004612e2a565b611385565b6102716103f7366004612a1d565b600d6020526000908152604090205481565b61027160045481565b610271610420366004612a1d565b60116020526000908152604090205481565b610266610440366004612e2a565b6114a6565b61027160035481565b61026661045c366004612cc8565b6115a9565b61047461046f366004612a1d565b611873565b60405161024a9a99989796959493929190612eb2565b61049d610498366004612a1d565b61195f565b60405161024a9190612f25565b6102666104b8366004612a1d565b6119f1565b6102666104cb366004612a1d565b611acb565b61027160015481565b6102666104e7366004612c27565b611b6c565b6000546104ff906001600160a01b031681565b6040516001600160a01b03909116815260200161024a565b610266610525366004612f69565b611ee4565b610378610538366004612a1d565b6120e3565b61026661054b366004612e2a565b612115565b61037861055e366004612a1d565b612218565b610576610571366004612a1d565b61224a565b60405161024a9190612fcd565b610271610591366004612a1d565b61247b565b61027160065481565b6102716105ad366004612a1d565b60106020526000908152604090205481565b600b60205260009081526040902080546001820154600283018054929391926105e790612fe0565b80601f016020809104026020016040519081016040528092919081815260200182805461061390612fe0565b80156106605780601f1061063557610100808354040283529160200191610660565b820191906000526020600020905b81548152906001019060200180831161064357829003601f168201915b50505050509080600301805461067590612fe0565b80601f01602080910402602001604051908101604052809291908181526020018280546106a190612fe0565b80156106ee5780601f106106c3576101008083540402835291602001916106ee565b820191906000526020600020905b8154815290600101906020018083116106d157829003601f168201915b5050506004840154600585015460068601546007870154600888015460099098015496979396929550909350919060ff168a565b8060008111801561073557506001548111155b61075a5760405162461bcd60e51b815260040161075190613014565b60405180910390fd5b6000610765336124f3565b9050600081116107a85760405162461bcd60e51b815260206004820152600e60248201526d4f6e6c792077617265686f75736560901b6044820152606401610751565b60008381526007602052604090206004018190556107c98360016002612555565b505050565b600080546001600160a01b03163314806107ec57506107ec336126b8565b6108085760405162461bcd60e51b815260040161075190613040565b8560008111801561081b57506001548111155b6108375760405162461bcd60e51b815260040161075190613014565b60008651116108805760405162461bcd60e51b815260206004820152601560248201527410985d18da081b9d5b58995c881c995c5d5a5c9959605a1b6044820152606401610751565b82158061088d5750838310155b6108d95760405162461bcd60e51b815260206004820152601b60248201527f457870697279206265666f7265206d616e75666163747572696e6700000000006044820152606401610751565b600580549060006108e98361307e565b91905055506040518061014001604052806005548152602001888152602001878152602001868152602001858152602001848152602001600081526020016000815260200142815260200160011515815250600b600060055481526020019081526020016000206000820151816000015560208201518160010155604082015181600201908161097991906130dd565b506060820151600382019061098e90826130dd565b506080820151600482015560a082015160058083019190915560c0830151600683015560e083015160078301556101008301516008830155610120909201516009909101805460ff19169115159190911790556000888152600f60209081526040808320845481546001810183559185529290932090920155905490518891907f43a717c856186f9851bb44ec695f54cec2498390001f322d23c67eb394f6f2b290610a43908a908a908a908a90429061319d565b60405180910390a3505060055495945050505050565b6000546001600160a01b0316331480610a765750610a76336126b8565b610a925760405162461bcd60e51b815260040161075190613040565b84600081118015610aa557506001548111155b610ac15760405162461bcd60e51b815260040161075190613014565b84600081118015610ad457506005548111155b8015610af157506000818152600b602052604090206009015460ff165b610b0d5760405162461bcd60e51b8152600401610751906131e0565b60008511610b2d5760405162461bcd60e51b81526004016107519061320a565b6001600160a01b038416610b765760405162461bcd60e51b815260206004820152601060248201526f24b73b30b634b2103932b1b2b4bb32b960811b6044820152606401610751565b6000868152600b60205260409020600101548714610ba65760405162461bcd60e51b815260040161075190613238565b6000868152600b602052604081206006018054879290610bc7908490613268565b90915550506000878152600d602052604081208054879290610bea908490613268565b90915550506000868152600e602090815260408083206001600160a01b038816845290915281208054879290610c21908490613268565b90915550610c38905087876000888189828a6126e7565b50505050505050565b60008060008060008086600081118015610c5d57506001548111155b610c795760405162461bcd60e51b815260040161075190613014565b505050600085815260126020908152604080832083805282528083205460018452818420546002855282852054600386528386205460048752848720549b8752601190955292909420549099939891975091955093509150565b80600081118015610ce657506001548111155b610d025760405162461bcd60e51b815260040161075190613014565b6000610d0d3361288d565b905060008111610d4f5760405162461bcd60e51b815260206004820152600d60248201526c27b7363c903932ba30b4b632b960991b6044820152606401610751565b60008381526007602052604090206005018190556107c98360026003612555565b6000546001600160a01b0316331480610d8d5750610d8d336126b8565b610da95760405162461bcd60e51b815260040161075190613040565b85600081118015610dbc57506001548111155b610dd85760405162461bcd60e51b815260040161075190613014565b85600081118015610deb57506005548111155b8015610e0857506000818152600b602052604090206009015460ff165b610e245760405162461bcd60e51b8152600401610751906131e0565b60008611610e445760405162461bcd60e51b81526004016107519061320a565b6001600160a01b038516610e8b5760405162461bcd60e51b815260206004820152600e60248201526d496e76616c696420736f7572636560901b6044820152606401610751565b6001600160a01b038416610ed75760405162461bcd60e51b815260206004820152601360248201527224b73b30b634b2103232b9ba34b730ba34b7b760691b6044820152606401610751565b6000878152600b60205260409020600101548814610f075760405162461bcd60e51b815260040161075190613238565b6000878152600e602090815260408083206001600160a01b0389168452909152902054861115610f745760405162461bcd60e51b8152602060048201526018602482015277496e73756666696369656e742062617463682073746f636b60401b6044820152606401610751565b6000888152600d6020526040902054861115610fd25760405162461bcd60e51b815260206004820152601a60248201527f496e73756666696369656e742070726f647563742073746f636b0000000000006044820152606401610751565b6000878152600e602090815260408083206001600160a01b03891684529091528120805488929061100490849061327b565b90915550506000878152600b60205260408120600701805488929061102a908490613268565b90915550506000888152600d60205260408120805488929061104d90849061327b565b9091555061106c9050888860018989896110668361328e565b8a6126e7565b5050505050505050565b6007602052600090815260409020805460018201805491929161109890612fe0565b80601f01602080910402602001604051908101604052809291908181526020018280546110c490612fe0565b80156111115780601f106110e657610100808354040283529160200191611111565b820191906000526020600020905b8154815290600101906020018083116110f457829003601f168201915b50505050509080600201805461112690612fe0565b80601f016020809104026020016040519081016040528092919081815260200182805461115290612fe0565b801561119f5780601f106111745761010080835404028352916020019161119f565b820191906000526020600020905b81548152906001019060200180831161118257829003601f168201915b505050506003830154600484015460058501546006909501549394919390925060ff1687565b600a602052600090815260409020805460018201546002830180546001600160a01b039093169391926111f790612fe0565b80601f016020809104026020016040519081016040528092919081815260200182805461122390612fe0565b80156112705780601f1061124557610100808354040283529160200191611270565b820191906000526020600020905b81548152906001019060200180831161125357829003601f168201915b50505050509080600301805461128590612fe0565b80601f01602080910402602001604051908101604052809291908181526020018280546112b190612fe0565b80156112fe5780601f106112d3576101008083540402835291602001916112fe565b820191906000526020600020905b8154815290600101906020018083116112e157829003601f168201915b5050505050905084565b60008160008111801561131d57506005548111155b801561133a57506000818152600b602052604090206009015460ff165b6113565760405162461bcd60e51b8152600401610751906131e0565b6000838152600b60205260408120600501549081900361137a57600092505061137f565b421191505b50919050565b6000546001600160a01b031633146113af5760405162461bcd60e51b8152600401610751906132aa565b6001600160a01b0383166114055760405162461bcd60e51b815260206004820152601c60248201527f496e76616c6964206d616e7566616374757265722061646472657373000000006044820152606401610751565b600280549060006114158361307e565b9091555050604080516080810182526001600160a01b038581168252600280546020808501828152858701898152606087018990526000938452600890925295909120845181546001600160a01b0319169416939093178355935160018301559251919290919082019061148990826130dd565b506060820151600382019061149e90826130dd565b505050505050565b6000546001600160a01b031633146114d05760405162461bcd60e51b8152600401610751906132aa565b6001600160a01b0383166115265760405162461bcd60e51b815260206004820152601860248201527f496e76616c69642072657461696c6572206164647265737300000000000000006044820152606401610751565b600480549060006115368361307e565b9091555050604080516080810182526001600160a01b0385811682526004546020808401828152848601888152606086018890526000938452600a90925294909120835181546001600160a01b0319169316929092178255925160018201559151909190600282019061148990826130dd565b6000546001600160a01b03163314806115c657506115c6336126b8565b6115e25760405162461bcd60e51b815260040161075190613040565b856000811180156115f557506001548111155b6116115760405162461bcd60e51b815260040161075190613014565b8560008111801561162457506005548111155b801561164157506000818152600b602052604090206009015460ff165b61165d5760405162461bcd60e51b8152600401610751906131e0565b6000861161167d5760405162461bcd60e51b81526004016107519061320a565b6001600160a01b0385161580159061169d57506001600160a01b03841615155b6116e95760405162461bcd60e51b815260206004820152601860248201527f496e76616c6964207472616e73666572206164647265737300000000000000006044820152606401610751565b836001600160a01b0316856001600160a01b0316036117555760405162461bcd60e51b815260206004820152602260248201527f536f7572636520616e642064657374696e6174696f6e206d757374206469666660448201526132b960f11b6064820152608401610751565b6000878152600b602052604090206001015488146117855760405162461bcd60e51b815260040161075190613238565b6000878152600e602090815260408083206001600160a01b03891684529091529020548611156117f25760405162461bcd60e51b8152602060048201526018602482015277496e73756666696369656e742062617463682073746f636b60401b6044820152606401610751565b6000878152600e602090815260408083206001600160a01b03891684529091528120805488929061182490849061327b565b90915550506000878152600e602090815260408083206001600160a01b03881684529091528120805488929061185b908490613268565b9091555061106c90508888600289898960008a6126e7565b600c6020526000908152604090208054600182015460028301546003840154600485015460058601546006870154600788015460088901805498999798969760ff9096169694956001600160a01b0394851695939094169391926118d690612fe0565b80601f016020809104026020016040519081016040528092919081815260200182805461190290612fe0565b801561194f5780601f106119245761010080835404028352916020019161194f565b820191906000526020600020905b81548152906001019060200180831161193257829003601f168201915b505050505090806009015490508a565b60608160008111801561197457506001548111155b6119905760405162461bcd60e51b815260040161075190613014565b6000838152600f6020908152604091829020805483518184028101840190945280845290918301828280156119e457602002820191906000526020600020905b8154815260200190600101908083116119d0575b5050505050915050919050565b80600081118015611a0457506001548111155b611a205760405162461bcd60e51b815260040161075190613014565b6000611a2b3361288d565b905060008111611a6d5760405162461bcd60e51b815260206004820152600d60248201526c27b7363c903932ba30b4b632b960991b6044820152606401610751565b6000838152600760205260409020600501548114611abe5760405162461bcd60e51b815260206004820152600e60248201526d2bb937b733903932ba30b4b632b960911b6044820152606401610751565b6107c98360036004612555565b80600081118015611ade57506001548111155b611afa5760405162461bcd60e51b815260040161075190613014565b6000611b05336128e6565b905060008111611b4b5760405162461bcd60e51b815260206004820152601160248201527027b7363c9036b0b73ab330b1ba3ab932b960791b6044820152606401610751565b60008381526007602052604081206003018290556107c99084906001612555565b6000546001600160a01b03163314611b965760405162461bcd60e51b8152600401610751906132aa565b84600081118015611ba957506001548111155b611bc55760405162461bcd60e51b815260040161075190613014565b84600081118015611bd857506005548111155b8015611bf557506000818152600b602052604090206009015460ff165b611c115760405162461bcd60e51b8152600401610751906131e0565b84600003611c585760405162461bcd60e51b815260206004820152601460248201527344656c74612063616e6e6f74206265207a65726f60601b6044820152606401610751565b6001600160a01b038416611c9f5760405162461bcd60e51b815260206004820152600e60248201526d24b73b30b634b2103437b63232b960911b6044820152606401610751565b6000868152600b60205260409020600101548714611ccf5760405162461bcd60e51b815260040161075190613238565b6000851315611d73576000868152600e602090815260408083206001600160a01b0388168452909152812080548792839291611d0c908490613268565b90915550506000878152600b602052604081206006018054839290611d32908490613268565b90915550506000888152600d602052604081208054839290611d55908490613268565b90915550611d6d9050888860038460008a8c8b6126e7565b50610c38565b6000611d7e8661328e565b6000888152600e602090815260408083206001600160a01b038a168452909152902054909150811115611df35760405162461bcd60e51b815260206004820152601960248201527f496e73756666696369656e7420686f6c6465722073746f636b000000000000006044820152606401610751565b6000888152600d6020526040902054811115611e515760405162461bcd60e51b815260206004820152601a60248201527f496e73756666696369656e742070726f647563742073746f636b0000000000006044820152606401610751565b6000878152600e602090815260408083206001600160a01b038916845290915281208054839290611e8390849061327b565b90915550506000878152600b602052604081206007018054839290611ea9908490613268565b90915550506000888152600d602052604081208054839290611ecc90849061327b565b9091555061106c905088886003848960008c8b6126e7565b6000546001600160a01b03163314611f0e5760405162461bcd60e51b8152600401610751906132aa565b6000600254118015611f2257506000600354115b8015611f3057506000600454115b611f735760405162461bcd60e51b8152602060048201526014602482015273149959da5cdd195c881c9bdb195cc8199a5c9cdd60621b6044820152606401610751565b60018054906000611f838361307e565b91905055506040518060e00160405280600154815260200183815260200182815260200160008152602001600081526020016000815260200160006004811115611fcf57611fcf612d42565b905260018054600090815260076020908152604090912083518155908301519091820190611ffd90826130dd565b506040820151600282019061201290826130dd565b50606082015181600301556080820151816004015560a0820151816005015560c08201518160060160006101000a81548160ff0219169083600481111561205b5761205b612d42565b021790555050600180546000908152601060209081526040808320429081905584548452601183528184208190558454845260128352818420848052909252918290208190559154905133935090917f5c4015d4cf0eeafe6a2291d37bb0278535dee12be24318d5a5cfb3510deabf2c916120d79187916132ce565b60405180910390a35050565b6008602052600090815260409020805460018201546002830180546001600160a01b039093169391926111f790612fe0565b6000546001600160a01b0316331461213f5760405162461bcd60e51b8152600401610751906132aa565b6001600160a01b0383166121955760405162461bcd60e51b815260206004820152601960248201527f496e76616c69642077617265686f7573652061646472657373000000000000006044820152606401610751565b600380549060006121a58361307e565b9091555050604080516080810182526001600160a01b0385811682526003546020808401828152848601888152606086018890526000938452600990925294909120835181546001600160a01b0319169316929092178255925160018201559151909190600282019061148990826130dd565b6009602052600090815260409020805460018201546002830180546001600160a01b039093169391926111f790612fe0565b60608160008111801561225f57506001548111155b61227b5760405162461bcd60e51b815260040161075190613014565b60008381526007602052604081206006015460ff1660048111156122a1576122a1612d42565b036122d5576040518060400160405280600f81526020016e141c9bd91d58dd0813dc99195c9959608a1b815250915061137f565b600160008481526007602052604090206006015460ff1660048111156122fd576122fd612d42565b0361233557604051806040016040528060138152602001724d616e75666163747572696e6720537461676560681b815250915061137f565b600260008481526007602052604090206006015460ff16600481111561235d5761235d612d42565b03612391576040518060400160405280600f81526020016e57617265686f75736520537461676560881b815250915061137f565b600360008481526007602052604090206006015460ff1660048111156123b9576123b9612d42565b036123ea576040518060400160405280600c81526020016b52657461696c20537461676560a01b815250915061137f565b600460008481526007602052604090206006015460ff16600481111561241257612412612d42565b03612443576040518060400160405280600c81526020016b141c9bd91d58dd0814dbdb1960a21b815250915061137f565b60405162461bcd60e51b815260206004820152600d60248201526c556e6b6e6f776e20737461676560981b6044820152606401610751565b60008160008111801561249057506005548111155b80156124ad57506000818152600b602052604090206009015460ff165b6124c95760405162461bcd60e51b8152600401610751906131e0565b6000838152600b6020526040902060078101546006909101546124ec919061327b565b9392505050565b600060015b600354811161254c576000818152600960205260409020546001600160a01b0380851691160361253a5760009081526009602052604090206001015492915050565b806125448161307e565b9150506124f8565b50600092915050565b81600481111561256757612567612d42565b60008481526007602052604090206006015460ff16600481111561258d5761258d612d42565b146125ca5760405162461bcd60e51b815260206004820152600d60248201526c496e76616c696420737461676560981b6044820152606401610751565b6000838152600760205260409020600601805482919060ff191660018360048111156125f8576125f8612d42565b02179055506000838152601260205260408120429183600481111561261f5761261f612d42565b60ff16815260208082019290925260409081016000908120939093558583526011909152902042905533837f09f680f22c87182ee82fae3c5a59e9549060431a5ebc19eafa319930b085c6ee84600481111561267d5761267d612d42565b84600481111561268f5761268f612d42565b6040805160ff9384168152929091166020830152429082015260600160405180910390a3505050565b60006126c38261293f565b806126d257506126d282612989565b806126e157506126e1826129d3565b92915050565b600680549060006126f78361307e565b9190505550604051806101400160405280600654815260200189815260200188815260200187600381111561272e5761272e612d42565b8152602001868152602001856001600160a01b03168152602001846001600160a01b0316815260200183815260200182815260200142815250600c6000600654815260200190815260200160002060008201518160000155602082015181600101556040820151816002015560608201518160030160006101000a81548160ff021916908360038111156127c4576127c4612d42565b02179055506080820151600482015560a08201516005820180546001600160a01b039283166001600160a01b03199182161790915560c084015160068401805491909316911617905560e08201516007820155610100820151600882019061282c90826130dd565b50610120820151816009015590505086886006547f293ac978ebaa45f33b4eeb01496f1a82c43fbf7656f0394287a6e8404e24a5248989878a8a894260405161287b97969594939291906132f0565b60405180910390a45050505050505050565b600060015b600454811161254c576000818152600a60205260409020546001600160a01b038085169116036128d4576000908152600a602052604090206001015492915050565b806128de8161307e565b915050612892565b600060015b600254811161254c576000818152600860205260409020546001600160a01b0380851691160361292d5760009081526008602052604090206001015492915050565b806129378161307e565b9150506128eb565b600060015b600254811161254c576000818152600860205260409020546001600160a01b038085169116036129775750600192915050565b806129818161307e565b915050612944565b600060015b600354811161254c576000818152600960205260409020546001600160a01b038085169116036129c15750600192915050565b806129cb8161307e565b91505061298e565b600060015b600454811161254c576000818152600a60205260409020546001600160a01b03808516911603612a0b5750600192915050565b80612a158161307e565b9150506129d8565b600060208284031215612a2f57600080fd5b5035919050565b6000815180845260005b81811015612a5c57602081850181015186830182015201612a40565b506000602082860101526020601f19601f83011685010191505092915050565b60006101408c83528b6020840152806040840152612a9c8184018c612a36565b90508281036060840152612ab0818b612a36565b6080840199909952505060a081019590955260c085019390935260e0840191909152610100830152151561012090910152949350505050565b634e487b7160e01b600052604160045260246000fd5b600082601f830112612b1057600080fd5b813567ffffffffffffffff80821115612b2b57612b2b612ae9565b604051601f8301601f19908116603f01168101908282118183101715612b5357612b53612ae9565b81604052838152866020858801011115612b6c57600080fd5b836020870160208301376000602085830101528094505050505092915050565b600080600080600060a08688031215612ba457600080fd5b85359450602086013567ffffffffffffffff80821115612bc357600080fd5b612bcf89838a01612aff565b95506040880135915080821115612be557600080fd5b50612bf288828901612aff565b9598949750949560608101359550608001359392505050565b80356001600160a01b0381168114612c2257600080fd5b919050565b600080600080600060a08688031215612c3f57600080fd5b853594506020860135935060408601359250612c5d60608701612c0b565b9150608086013567ffffffffffffffff811115612c7957600080fd5b612c8588828901612aff565b9150509295509295909350565b60008060408385031215612ca557600080fd5b82359150602083013560ff81168114612cbd57600080fd5b809150509250929050565b60008060008060008060c08789031215612ce157600080fd5b863595506020870135945060408701359350612cff60608801612c0b565b9250612d0d60808801612c0b565b915060a087013567ffffffffffffffff811115612d2957600080fd5b612d3589828a01612aff565b9150509295509295509295565b634e487b7160e01b600052602160045260246000fd5b87815260e060208201526000612d7160e0830189612a36565b8281036040840152612d838189612a36565b9150508560608301528460808301528360a083015260058310612da857612da8612d42565b8260c083015298975050505050505050565b60018060a01b0385168152836020820152608060408201526000612de16080830185612a36565b8281036060840152612df38185612a36565b979650505050505050565b60008060408385031215612e1157600080fd5b82359150612e2160208401612c0b565b90509250929050565b600080600060608486031215612e3f57600080fd5b612e4884612c0b565b9250602084013567ffffffffffffffff80821115612e6557600080fd5b612e7187838801612aff565b93506040860135915080821115612e8757600080fd5b50612e9486828701612aff565b9150509250925092565b60048110612eae57612eae612d42565b9052565b60006101408c83528b60208401528a6040840152612ed3606084018b612e9e565b608083018990526001600160a01b0388811660a0850152871660c084015260e083018690526101008301819052612f0c81840186612a36565b915050826101208301529b9a5050505050505050505050565b6020808252825182820181905260009190848201906040850190845b81811015612f5d57835183529284019291840191600101612f41565b50909695505050505050565b60008060408385031215612f7c57600080fd5b823567ffffffffffffffff80821115612f9457600080fd5b612fa086838701612aff565b93506020850135915080821115612fb657600080fd5b50612fc385828601612aff565b9150509250929050565b6020815260006124ec6020830184612a36565b600181811c90821680612ff457607f821691505b60208210810361137f57634e487b7160e01b600052602260045260246000fd5b602080825260129082015271125b9d985b1a59081c1c9bd91d58dd081a5960721b604082015260600190565b6020808252600e908201526d139bdd08185d5d1a1bdc9a5e995960921b604082015260600190565b634e487b7160e01b600052601160045260246000fd5b60006001820161309057613090613068565b5060010190565b601f8211156107c957600081815260208120601f850160051c810160208610156130be5750805b601f850160051c820191505b8181101561149e578281556001016130ca565b815167ffffffffffffffff8111156130f7576130f7612ae9565b61310b816131058454612fe0565b84613097565b602080601f83116001811461314057600084156131285750858301515b600019600386901b1c1916600185901b17855561149e565b600085815260208120601f198616915b8281101561316f57888601518255948401946001909101908401613150565b508582101561318d5787850151600019600388901b60f8161c191681555b5050505050600190811b01905550565b60a0815260006131b060a0830188612a36565b82810360208401526131c28188612a36565b60408401969096525050606081019290925260809091015292915050565b60208082526010908201526f125b9d985b1a590818985d18da081a5960821b604082015260600190565b60208082526014908201527305175616e74697479206d757374206265203e20360641b604082015260600190565b602080825260169082015275084c2e8c6d05ae0e4dec8eac6e840dad2e6dac2e8c6d60531b604082015260600190565b808201808211156126e1576126e1613068565b818103818111156126e1576126e1613068565b6000600160ff1b82016132a3576132a3613068565b5060000390565b6020808252600a908201526927b7363c9037bbb732b960b11b604082015260600190565b6040815260006132e16040830185612a36565b90508260208301529392505050565b6132fa8189612e9e565b60208101879052604081018690526001600160a01b0385811660608301528416608082015260e060a0820181905260009061333790830185612a36565b90508260c08301529897505050505050505056fea2646970667358221220501c4206e9c074aeb535709f9bacdd5311c09fcf17afa3d7026a767549e7f49564736f6c63430008130033",
  "linkReferences": {},
  "deployedLinkReferences": {}
}